{
	"FundMe.sol": {
		"fundMe": {
			"abi": [
				{
					"inputs": [],
					"stateMutability": "nonpayable",
					"type": "constructor"
				},
				{
					"stateMutability": "payable",
					"type": "fallback"
				},
				{
					"inputs": [
						{
							"internalType": "address",
							"name": "funder",
							"type": "address"
						}
					],
					"name": "addressToAmountFunded",
					"outputs": [
						{
							"internalType": "uint256",
							"name": "amountFunded",
							"type": "uint256"
						}
					],
					"stateMutability": "view",
					"type": "function"
				},
				{
					"inputs": [],
					"name": "fund",
					"outputs": [],
					"stateMutability": "payable",
					"type": "function"
				},
				{
					"inputs": [
						{
							"internalType": "uint256",
							"name": "",
							"type": "uint256"
						}
					],
					"name": "funders",
					"outputs": [
						{
							"internalType": "address",
							"name": "",
							"type": "address"
						}
					],
					"stateMutability": "view",
					"type": "function"
				},
				{
					"inputs": [],
					"name": "i_owner",
					"outputs": [
						{
							"internalType": "address",
							"name": "",
							"type": "address"
						}
					],
					"stateMutability": "view",
					"type": "function"
				},
				{
					"inputs": [],
					"name": "minimumUSD",
					"outputs": [
						{
							"internalType": "uint256",
							"name": "",
							"type": "uint256"
						}
					],
					"stateMutability": "view",
					"type": "function"
				},
				{
					"inputs": [],
					"name": "withdraw",
					"outputs": [],
					"stateMutability": "nonpayable",
					"type": "function"
				},
				{
					"stateMutability": "payable",
					"type": "receive"
				}
			],
			"devdoc": {
				"kind": "dev",
				"methods": {},
				"version": 1
			},
			"evm": {
				"assembly": "    /* \"FundMe.sol\":194:1865  contract fundMe {... */\n  mstore(0x40, 0xa0)\n    /* \"FundMe.sol\":456:506  constructor(){... */\n  callvalue\n  dup1\n  iszero\n  tag_1\n  jumpi\n  revert(0x00, 0x00)\ntag_1:\n  pop\n    /* \"FundMe.sol\":489:499  msg.sender */\n  caller\n    /* \"FundMe.sol\":479:499  i_owner = msg.sender */\n  0xffffffffffffffffffffffffffffffffffffffff\n  and\n  0x80\n  dup2\n  0xffffffffffffffffffffffffffffffffffffffff\n  and\n  dup2\n  mstore\n  pop\n  pop\n    /* \"FundMe.sol\":194:1865  contract fundMe {... */\n  mload(0x80)\n  codecopy(0x00, dataOffset(sub_0), dataSize(sub_0))\n  0x00\n  assignImmutable(\"0x646d998f946f968f0675fd4e3cb527e1222094ea0d9cc1fd615146a8fe29802e\")\n  return(0x00, dataSize(sub_0))\nstop\n\nsub_0: assembly {\n        /* \"FundMe.sol\":194:1865  contract fundMe {... */\n      mstore(0x40, 0x80)\n      jumpi(tag_1, lt(calldatasize, 0x04))\n      shr(0xe0, calldataload(0x00))\n      dup1\n      0x3430a88c\n      eq\n      tag_3\n      jumpi\n      dup1\n      0x3ccfd60b\n      eq\n      tag_4\n      jumpi\n      dup1\n      0x3e47d6f3\n      eq\n      tag_5\n      jumpi\n      dup1\n      0xb60d4288\n      eq\n      tag_6\n      jumpi\n      dup1\n      0xdba6335f\n      eq\n      tag_7\n      jumpi\n      dup1\n      0xdc0d3dff\n      eq\n      tag_8\n      jumpi\n      jump(tag_2)\n    tag_1:\n      jumpi(tag_2, calldatasize)\n        /* \"FundMe.sol\":1791:1797  fund() */\n      tag_11\n        /* \"FundMe.sol\":1791:1795  fund */\n      tag_12\n        /* \"FundMe.sol\":1791:1797  fund() */\n      jump\t// in\n    tag_11:\n        /* \"FundMe.sol\":194:1865  contract fundMe {... */\n      stop\n    tag_2:\n        /* \"FundMe.sol\":1849:1855  fund() */\n      tag_15\n        /* \"FundMe.sol\":1849:1853  fund */\n      tag_12\n        /* \"FundMe.sol\":1849:1855  fund() */\n      jump\t// in\n    tag_15:\n        /* \"FundMe.sol\":194:1865  contract fundMe {... */\n      stop\n        /* \"FundMe.sol\":255:296  uint256 public constant minimumUSD = 5e18 */\n    tag_3:\n      callvalue\n      dup1\n      iszero\n      tag_16\n      jumpi\n      revert(0x00, 0x00)\n    tag_16:\n      pop\n      tag_17\n      tag_18\n      jump\t// in\n    tag_17:\n      mload(0x40)\n      tag_19\n      swap2\n      swap1\n      tag_20\n      jump\t// in\n    tag_19:\n      mload(0x40)\n      dup1\n      swap2\n      sub\n      swap1\n      return\n        /* \"FundMe.sol\":868:1634  function withdraw() public onlyOwner{... */\n    tag_4:\n      callvalue\n      dup1\n      iszero\n      tag_21\n      jumpi\n      revert(0x00, 0x00)\n    tag_21:\n      pop\n      tag_22\n      tag_23\n      jump\t// in\n    tag_22:\n      stop\n        /* \"FundMe.sol\":334:410  mapping(address funder => uint256 amountFunded) public addressToAmountFunded */\n    tag_5:\n      callvalue\n      dup1\n      iszero\n      tag_24\n      jumpi\n      revert(0x00, 0x00)\n    tag_24:\n      pop\n      tag_25\n      0x04\n      dup1\n      calldatasize\n      sub\n      dup2\n      add\n      swap1\n      tag_26\n      swap2\n      swap1\n      tag_27\n      jump\t// in\n    tag_26:\n      tag_28\n      jump\t// in\n    tag_25:\n      mload(0x40)\n      tag_29\n      swap2\n      swap1\n      tag_20\n      jump\t// in\n    tag_29:\n      mload(0x40)\n      dup1\n      swap2\n      sub\n      swap1\n      return\n        /* \"FundMe.sol\":512:862  function fund() public payable {... */\n    tag_6:\n      tag_30\n      tag_12\n      jump\t// in\n    tag_30:\n      stop\n        /* \"FundMe.sol\":417:449  address public immutable i_owner */\n    tag_7:\n      callvalue\n      dup1\n      iszero\n      tag_31\n      jumpi\n      revert(0x00, 0x00)\n    tag_31:\n      pop\n      tag_32\n      tag_33\n      jump\t// in\n    tag_32:\n      mload(0x40)\n      tag_34\n      swap2\n      swap1\n      tag_35\n      jump\t// in\n    tag_34:\n      mload(0x40)\n      dup1\n      swap2\n      sub\n      swap1\n      return\n        /* \"FundMe.sol\":303:328  address [] public funders */\n    tag_8:\n      callvalue\n      dup1\n      iszero\n      tag_36\n      jumpi\n      revert(0x00, 0x00)\n    tag_36:\n      pop\n      tag_37\n      0x04\n      dup1\n      calldatasize\n      sub\n      dup2\n      add\n      swap1\n      tag_38\n      swap2\n      swap1\n      tag_39\n      jump\t// in\n    tag_38:\n      tag_40\n      jump\t// in\n    tag_37:\n      mload(0x40)\n      tag_41\n      swap2\n      swap1\n      tag_35\n      jump\t// in\n    tag_41:\n      mload(0x40)\n      dup1\n      swap2\n      sub\n      swap1\n      return\n        /* \"FundMe.sol\":512:862  function fund() public payable {... */\n    tag_12:\n        /* \"FundMe.sol\":292:296  5e18 */\n      0x4563918244f40000\n        /* \"FundMe.sol\":694:723  msg.value.getConversionRate() */\n      tag_43\n        /* \"FundMe.sol\":694:703  msg.value */\n      callvalue\n        /* \"FundMe.sol\":694:721  msg.value.getConversionRate */\n      tag_44\n        /* \"FundMe.sol\":694:723  msg.value.getConversionRate() */\n      jump\t// in\n    tag_43:\n        /* \"FundMe.sol\":694:737  msg.value.getConversionRate() >= minimumUSD */\n      lt\n      iszero\n        /* \"FundMe.sol\":686:765  require(msg.value.getConversionRate() >= minimumUSD , \"didn't send enough eth\") */\n      tag_45\n      jumpi\n      mload(0x40)\n      0x08c379a000000000000000000000000000000000000000000000000000000000\n      dup2\n      mstore\n      0x04\n      add\n      tag_46\n      swap1\n      tag_47\n      jump\t// in\n    tag_46:\n      mload(0x40)\n      dup1\n      swap2\n      sub\n      swap1\n      revert\n    tag_45:\n        /* \"FundMe.sol\":775:782  funders */\n      0x00\n        /* \"FundMe.sol\":788:798  msg.sender */\n      caller\n        /* \"FundMe.sol\":775:799  funders.push(msg.sender) */\n      swap1\n      dup1\n      0x01\n      dup2\n      sload\n      add\n      dup1\n      dup3\n      sstore\n      dup1\n      swap2\n      pop\n      pop\n      0x01\n      swap1\n      sub\n      swap1\n      0x00\n      mstore\n      keccak256(0x00, 0x20)\n      add\n      0x00\n      swap1\n      swap2\n      swap1\n      swap2\n      swap1\n      swap2\n      0x0100\n      exp\n      dup2\n      sload\n      dup2\n      0xffffffffffffffffffffffffffffffffffffffff\n      mul\n      not\n      and\n      swap1\n      dup4\n      0xffffffffffffffffffffffffffffffffffffffff\n      and\n      mul\n      or\n      swap1\n      sstore\n      pop\n        /* \"FundMe.sol\":846:855  msg.value */\n      callvalue\n        /* \"FundMe.sol\":809:830  addressToAmountFunded */\n      0x01\n        /* \"FundMe.sol\":809:842  addressToAmountFunded[msg.sender] */\n      0x00\n        /* \"FundMe.sol\":831:841  msg.sender */\n      caller\n        /* \"FundMe.sol\":809:842  addressToAmountFunded[msg.sender] */\n      0xffffffffffffffffffffffffffffffffffffffff\n      and\n      0xffffffffffffffffffffffffffffffffffffffff\n      and\n      dup2\n      mstore\n      0x20\n      add\n      swap1\n      dup2\n      mstore\n      0x20\n      add\n      0x00\n      keccak256\n      0x00\n        /* \"FundMe.sol\":809:855  addressToAmountFunded[msg.sender] += msg.value */\n      dup3\n      dup3\n      sload\n      tag_49\n      swap2\n      swap1\n      tag_50\n      jump\t// in\n    tag_49:\n      swap3\n      pop\n      pop\n      dup2\n      swap1\n      sstore\n      pop\n        /* \"FundMe.sol\":512:862  function fund() public payable {... */\n      jump\t// out\n        /* \"FundMe.sol\":255:296  uint256 public constant minimumUSD = 5e18 */\n    tag_18:\n        /* \"FundMe.sol\":292:296  5e18 */\n      0x4563918244f40000\n        /* \"FundMe.sol\":255:296  uint256 public constant minimumUSD = 5e18 */\n      dup2\n      jump\t// out\n        /* \"FundMe.sol\":868:1634  function withdraw() public onlyOwner{... */\n    tag_23:\n        /* \"FundMe.sol\":1692:1699  i_owner */\n      immutable(\"0x646d998f946f968f0675fd4e3cb527e1222094ea0d9cc1fd615146a8fe29802e\")\n        /* \"FundMe.sol\":1678:1699  msg.sender == i_owner */\n      0xffffffffffffffffffffffffffffffffffffffff\n      and\n        /* \"FundMe.sol\":1678:1688  msg.sender */\n      caller\n        /* \"FundMe.sol\":1678:1699  msg.sender == i_owner */\n      0xffffffffffffffffffffffffffffffffffffffff\n      and\n      eq\n        /* \"FundMe.sol\":1670:1727  require(msg.sender == i_owner , \"only owner can do this\") */\n      tag_52\n      jumpi\n      mload(0x40)\n      0x08c379a000000000000000000000000000000000000000000000000000000000\n      dup2\n      mstore\n      0x04\n      add\n      tag_53\n      swap1\n      tag_54\n      jump\t// in\n    tag_53:\n      mload(0x40)\n      dup1\n      swap2\n      sub\n      swap1\n      revert\n    tag_52:\n        /* \"FundMe.sol\":1004:1023  uint256 funderIndex */\n      0x00\n        /* \"FundMe.sol\":1026:1027  0 */\n      0x00\n        /* \"FundMe.sol\":1004:1027  uint256 funderIndex = 0 */\n      swap1\n      pop\n        /* \"FundMe.sol\":999:1182  for (uint256 funderIndex = 0; funderIndex < funders.length; funderIndex++){... */\n    tag_56:\n        /* \"FundMe.sol\":1043:1050  funders */\n      0x00\n        /* \"FundMe.sol\":1043:1057  funders.length */\n      dup1\n      sload\n      swap1\n      pop\n        /* \"FundMe.sol\":1029:1040  funderIndex */\n      dup2\n        /* \"FundMe.sol\":1029:1057  funderIndex < funders.length */\n      lt\n        /* \"FundMe.sol\":999:1182  for (uint256 funderIndex = 0; funderIndex < funders.length; funderIndex++){... */\n      iszero\n      tag_57\n      jumpi\n        /* \"FundMe.sol\":1087:1101  address funder */\n      0x00\n        /* \"FundMe.sol\":1104:1111  funders */\n      0x00\n        /* \"FundMe.sol\":1112:1123  funderIndex */\n      dup3\n        /* \"FundMe.sol\":1104:1124  funders[funderIndex] */\n      dup2\n      sload\n      dup2\n      lt\n      tag_59\n      jumpi\n      tag_60\n      tag_61\n      jump\t// in\n    tag_60:\n    tag_59:\n      swap1\n      0x00\n      mstore\n      keccak256(0x00, 0x20)\n      add\n      0x00\n      swap1\n      sload\n      swap1\n      0x0100\n      exp\n      swap1\n      div\n      0xffffffffffffffffffffffffffffffffffffffff\n      and\n        /* \"FundMe.sol\":1087:1124  address funder = funders[funderIndex] */\n      swap1\n      pop\n        /* \"FundMe.sol\":1170:1171  0 */\n      0x00\n        /* \"FundMe.sol\":1138:1159  addressToAmountFunded */\n      0x01\n        /* \"FundMe.sol\":1138:1167  addressToAmountFunded[funder] */\n      0x00\n        /* \"FundMe.sol\":1160:1166  funder */\n      dup4\n        /* \"FundMe.sol\":1138:1167  addressToAmountFunded[funder] */\n      0xffffffffffffffffffffffffffffffffffffffff\n      and\n      0xffffffffffffffffffffffffffffffffffffffff\n      and\n      dup2\n      mstore\n      0x20\n      add\n      swap1\n      dup2\n      mstore\n      0x20\n      add\n      0x00\n      keccak256\n        /* \"FundMe.sol\":1138:1171  addressToAmountFunded[funder] = 0 */\n      dup2\n      swap1\n      sstore\n      pop\n        /* \"FundMe.sol\":1073:1182  {... */\n      pop\n        /* \"FundMe.sol\":1059:1072  funderIndex++ */\n      dup1\n      dup1\n      0x01\n      add\n      swap2\n      pop\n      pop\n        /* \"FundMe.sol\":999:1182  for (uint256 funderIndex = 0; funderIndex < funders.length; funderIndex++){... */\n      jump(tag_56)\n    tag_57:\n      pop\n        /* \"FundMe.sol\":1218:1219  0 */\n      0x00\n        /* \"FundMe.sol\":1204:1220  new address[](0) */\n      0xffffffffffffffff\n      dup2\n      gt\n      iszero\n      tag_63\n      jumpi\n      tag_64\n      tag_65\n      jump\t// in\n    tag_64:\n    tag_63:\n      mload(0x40)\n      swap1\n      dup1\n      dup3\n      mstore\n      dup1\n      0x20\n      mul\n      0x20\n      add\n      dup3\n      add\n      0x40\n      mstore\n      dup1\n      iszero\n      tag_66\n      jumpi\n      dup2\n      0x20\n      add\n      0x20\n      dup3\n      mul\n      dup1\n      calldatasize\n      dup4\n      calldatacopy\n      dup1\n      dup3\n      add\n      swap2\n      pop\n      pop\n      swap1\n      pop\n    tag_66:\n      pop\n        /* \"FundMe.sol\":1194:1201  funders */\n      0x00\n        /* \"FundMe.sol\":1194:1220  funders = new address[](0) */\n      swap1\n      dup1\n      mload\n      swap1\n      0x20\n      add\n      swap1\n      tag_67\n      swap3\n      swap2\n      swap1\n      tag_68\n      jump\t// in\n    tag_67:\n      pop\n        /* \"FundMe.sol\":1500:1516  bool callSuccess */\n      0x00\n        /* \"FundMe.sol\":1530:1540  msg.sender */\n      caller\n        /* \"FundMe.sol\":1522:1546  payable(msg.sender).call */\n      0xffffffffffffffffffffffffffffffffffffffff\n      and\n        /* \"FundMe.sol\":1555:1576  address(this).balance */\n      selfbalance\n        /* \"FundMe.sol\":1522:1581  payable(msg.sender).call{value : address(this).balance}(\"\") */\n      mload(0x40)\n      tag_69\n      swap1\n      tag_70\n      jump\t// in\n    tag_69:\n      0x00\n      mload(0x40)\n      dup1\n      dup4\n      sub\n      dup2\n      dup6\n      dup8\n      gas\n      call\n      swap3\n      pop\n      pop\n      pop\n      returndatasize\n      dup1\n      0x00\n      dup2\n      eq\n      tag_73\n      jumpi\n      mload(0x40)\n      swap2\n      pop\n      and(add(returndatasize, 0x3f), not(0x1f))\n      dup3\n      add\n      0x40\n      mstore\n      returndatasize\n      dup3\n      mstore\n      returndatasize\n      0x00\n      0x20\n      dup5\n      add\n      returndatacopy\n      jump(tag_72)\n    tag_73:\n      0x60\n      swap2\n      pop\n    tag_72:\n      pop\n        /* \"FundMe.sol\":1499:1581  (bool callSuccess, ) = payable(msg.sender).call{value : address(this).balance}(\"\") */\n      pop\n      swap1\n      pop\n        /* \"FundMe.sol\":1595:1606  callSuccess */\n      dup1\n        /* \"FundMe.sol\":1587:1622  require(callSuccess, \"call failed\") */\n      tag_74\n      jumpi\n      mload(0x40)\n      0x08c379a000000000000000000000000000000000000000000000000000000000\n      dup2\n      mstore\n      0x04\n      add\n      tag_75\n      swap1\n      tag_76\n      jump\t// in\n    tag_75:\n      mload(0x40)\n      dup1\n      swap2\n      sub\n      swap1\n      revert\n    tag_74:\n        /* \"FundMe.sol\":904:1634  {... */\n      pop\n        /* \"FundMe.sol\":868:1634  function withdraw() public onlyOwner{... */\n      jump\t// out\n        /* \"FundMe.sol\":334:410  mapping(address funder => uint256 amountFunded) public addressToAmountFunded */\n    tag_28:\n      mstore(0x20, 0x01)\n      dup1\n      0x00\n      mstore\n      keccak256(0x00, 0x40)\n      0x00\n      swap2\n      pop\n      swap1\n      pop\n      sload\n      dup2\n      jump\t// out\n        /* \"FundMe.sol\":417:449  address public immutable i_owner */\n    tag_33:\n      immutable(\"0x646d998f946f968f0675fd4e3cb527e1222094ea0d9cc1fd615146a8fe29802e\")\n      dup2\n      jump\t// out\n        /* \"FundMe.sol\":303:328  address [] public funders */\n    tag_40:\n      0x00\n      dup2\n      dup2\n      sload\n      dup2\n      lt\n      tag_77\n      jumpi\n      0x00\n      dup1\n      revert\n    tag_77:\n      swap1\n      0x00\n      mstore\n      keccak256(0x00, 0x20)\n      add\n      0x00\n      swap2\n      pop\n      sload\n      swap1\n      0x0100\n      exp\n      swap1\n      div\n      0xffffffffffffffffffffffffffffffffffffffff\n      and\n      dup2\n      jump\t// out\n        /* \"PriceConvertor.sol\":614:831  function getConversionRate(uint256 ethAmount) internal view returns(uint256){... */\n    tag_44:\n        /* \"PriceConvertor.sol\":682:689  uint256 */\n      0x00\n        /* \"PriceConvertor.sol\":700:716  uint256 ethPrice */\n      0x00\n        /* \"PriceConvertor.sol\":719:729  getPrice() */\n      tag_80\n        /* \"PriceConvertor.sol\":719:727  getPrice */\n      tag_81\n        /* \"PriceConvertor.sol\":719:729  getPrice() */\n      jump\t// in\n    tag_80:\n        /* \"PriceConvertor.sol\":700:729  uint256 ethPrice = getPrice() */\n      swap1\n      pop\n        /* \"PriceConvertor.sol\":739:761  uint256 ethAmountInUsd */\n      0x00\n        /* \"PriceConvertor.sol\":789:793  1e18 */\n      0x0de0b6b3a7640000\n        /* \"PriceConvertor.sol\":776:785  ethAmount */\n      dup5\n        /* \"PriceConvertor.sol\":765:773  ethPrice */\n      dup4\n        /* \"PriceConvertor.sol\":765:785  ethPrice * ethAmount */\n      tag_82\n      swap2\n      swap1\n      tag_83\n      jump\t// in\n    tag_82:\n        /* \"PriceConvertor.sol\":764:793  (ethPrice * ethAmount) / 1e18 */\n      tag_84\n      swap2\n      swap1\n      tag_85\n      jump\t// in\n    tag_84:\n        /* \"PriceConvertor.sol\":739:793  uint256 ethAmountInUsd = (ethPrice * ethAmount) / 1e18 */\n      swap1\n      pop\n        /* \"PriceConvertor.sol\":810:824  ethAmountInUsd */\n      dup1\n        /* \"PriceConvertor.sol\":803:824  return ethAmountInUsd */\n      swap3\n      pop\n      pop\n      pop\n        /* \"PriceConvertor.sol\":614:831  function getConversionRate(uint256 ethAmount) internal view returns(uint256){... */\n      swap2\n      swap1\n      pop\n      jump\t// out\n        /* \"PriceConvertor.sol\":202:608  function getPrice() internal view returns(uint256){... */\n    tag_81:\n        /* \"PriceConvertor.sol\":244:251  uint256 */\n      0x00\n        /* \"PriceConvertor.sol\":338:369  AggregatorV3Interface priceFeed */\n      0x00\n        /* \"PriceConvertor.sol\":394:436  0x694AA1769357215DE4FAC081bf1f309aDC325306 */\n      0x694aa1769357215de4fac081bf1f309adc325306\n        /* \"PriceConvertor.sol\":338:437  AggregatorV3Interface priceFeed = AggregatorV3Interface(0x694AA1769357215DE4FAC081bf1f309aDC325306) */\n      swap1\n      pop\n        /* \"PriceConvertor.sol\":450:462  int256 price */\n      0x00\n        /* \"PriceConvertor.sol\":472:481  priceFeed */\n      dup2\n        /* \"PriceConvertor.sol\":472:497  priceFeed.latestRoundData */\n      0xffffffffffffffffffffffffffffffffffffffff\n      and\n      0xfeaf968c\n        /* \"PriceConvertor.sol\":472:499  priceFeed.latestRoundData() */\n      mload(0x40)\n      dup2\n      0xffffffff\n      and\n      0xe0\n      shl\n      dup2\n      mstore\n      0x04\n      add\n      0xa0\n      mload(0x40)\n      dup1\n      dup4\n      sub\n      dup2\n      dup7\n      gas\n      staticcall\n      iszero\n      dup1\n      iszero\n      tag_88\n      jumpi\n      returndatacopy(0x00, 0x00, returndatasize)\n      revert(0x00, returndatasize)\n    tag_88:\n      pop\n      pop\n      pop\n      pop\n      mload(0x40)\n      returndatasize\n      not(0x1f)\n      0x1f\n      dup3\n      add\n      and\n      dup3\n      add\n      dup1\n      0x40\n      mstore\n      pop\n      dup2\n      add\n      swap1\n      tag_89\n      swap2\n      swap1\n      tag_90\n      jump\t// in\n    tag_89:\n        /* \"PriceConvertor.sol\":447:499  (, int256 price, , , ) = priceFeed.latestRoundData() */\n      pop\n      pop\n      pop\n      swap2\n      pop\n      pop\n        /* \"PriceConvertor.sol\":595:599  1e10 */\n      0x02540be400\n        /* \"PriceConvertor.sol\":587:592  price */\n      dup2\n        /* \"PriceConvertor.sol\":587:599  price * 1e10 */\n      tag_91\n      swap2\n      swap1\n      tag_92\n      jump\t// in\n    tag_91:\n        /* \"PriceConvertor.sol\":572:600  return uint256(price * 1e10) */\n      swap3\n      pop\n      pop\n      pop\n        /* \"PriceConvertor.sol\":202:608  function getPrice() internal view returns(uint256){... */\n      swap1\n      jump\t// out\n    tag_68:\n      dup3\n      dup1\n      sload\n      dup3\n      dup3\n      sstore\n      swap1\n      0x00\n      mstore\n      keccak256(0x00, 0x20)\n      swap1\n      dup2\n      add\n      swap3\n      dup3\n      iszero\n      tag_93\n      jumpi\n      swap2\n      0x20\n      mul\n      dup3\n      add\n    tag_94:\n      dup3\n      dup2\n      gt\n      iszero\n      tag_95\n      jumpi\n      dup3\n      mload\n      dup3\n      exp(0x0100, 0x00)\n      dup2\n      sload\n      dup2\n      0xffffffffffffffffffffffffffffffffffffffff\n      mul\n      not\n      and\n      swap1\n      dup4\n      0xffffffffffffffffffffffffffffffffffffffff\n      and\n      mul\n      or\n      swap1\n      sstore\n      pop\n      swap2\n      0x20\n      add\n      swap2\n      swap1\n      0x01\n      add\n      swap1\n      jump(tag_94)\n    tag_95:\n    tag_93:\n      pop\n      swap1\n      pop\n      tag_96\n      swap2\n      swap1\n      tag_97\n      jump\t// in\n    tag_96:\n      pop\n      swap1\n      jump\t// out\n    tag_97:\n    tag_98:\n      dup1\n      dup3\n      gt\n      iszero\n      tag_99\n      jumpi\n      0x00\n      dup2\n      0x00\n      swap1\n      sstore\n      pop\n      0x01\n      add\n      jump(tag_98)\n    tag_99:\n      pop\n      swap1\n      jump\t// out\n        /* \"#utility.yul\":7:84   */\n    tag_100:\n        /* \"#utility.yul\":44:51   */\n      0x00\n        /* \"#utility.yul\":73:78   */\n      dup2\n        /* \"#utility.yul\":62:78   */\n      swap1\n      pop\n        /* \"#utility.yul\":7:84   */\n      swap2\n      swap1\n      pop\n      jump\t// out\n        /* \"#utility.yul\":90:208   */\n    tag_101:\n        /* \"#utility.yul\":177:201   */\n      tag_134\n        /* \"#utility.yul\":195:200   */\n      dup2\n        /* \"#utility.yul\":177:201   */\n      tag_100\n      jump\t// in\n    tag_134:\n        /* \"#utility.yul\":172:175   */\n      dup3\n        /* \"#utility.yul\":165:202   */\n      mstore\n        /* \"#utility.yul\":90:208   */\n      pop\n      pop\n      jump\t// out\n        /* \"#utility.yul\":214:436   */\n    tag_20:\n        /* \"#utility.yul\":307:311   */\n      0x00\n        /* \"#utility.yul\":345:347   */\n      0x20\n        /* \"#utility.yul\":334:343   */\n      dup3\n        /* \"#utility.yul\":330:348   */\n      add\n        /* \"#utility.yul\":322:348   */\n      swap1\n      pop\n        /* \"#utility.yul\":358:429   */\n      tag_136\n        /* \"#utility.yul\":426:427   */\n      0x00\n        /* \"#utility.yul\":415:424   */\n      dup4\n        /* \"#utility.yul\":411:428   */\n      add\n        /* \"#utility.yul\":402:408   */\n      dup5\n        /* \"#utility.yul\":358:429   */\n      tag_101\n      jump\t// in\n    tag_136:\n        /* \"#utility.yul\":214:436   */\n      swap3\n      swap2\n      pop\n      pop\n      jump\t// out\n        /* \"#utility.yul\":523:640   */\n    tag_103:\n        /* \"#utility.yul\":632:633   */\n      0x00\n        /* \"#utility.yul\":629:630   */\n      0x00\n        /* \"#utility.yul\":622:634   */\n      revert\n        /* \"#utility.yul\":769:895   */\n    tag_105:\n        /* \"#utility.yul\":806:813   */\n      0x00\n        /* \"#utility.yul\":846:888   */\n      0xffffffffffffffffffffffffffffffffffffffff\n        /* \"#utility.yul\":839:844   */\n      dup3\n        /* \"#utility.yul\":835:889   */\n      and\n        /* \"#utility.yul\":824:889   */\n      swap1\n      pop\n        /* \"#utility.yul\":769:895   */\n      swap2\n      swap1\n      pop\n      jump\t// out\n        /* \"#utility.yul\":901:997   */\n    tag_106:\n        /* \"#utility.yul\":938:945   */\n      0x00\n        /* \"#utility.yul\":967:991   */\n      tag_142\n        /* \"#utility.yul\":985:990   */\n      dup3\n        /* \"#utility.yul\":967:991   */\n      tag_105\n      jump\t// in\n    tag_142:\n        /* \"#utility.yul\":956:991   */\n      swap1\n      pop\n        /* \"#utility.yul\":901:997   */\n      swap2\n      swap1\n      pop\n      jump\t// out\n        /* \"#utility.yul\":1003:1125   */\n    tag_107:\n        /* \"#utility.yul\":1076:1100   */\n      tag_144\n        /* \"#utility.yul\":1094:1099   */\n      dup2\n        /* \"#utility.yul\":1076:1100   */\n      tag_106\n      jump\t// in\n    tag_144:\n        /* \"#utility.yul\":1069:1074   */\n      dup2\n        /* \"#utility.yul\":1066:1101   */\n      eq\n        /* \"#utility.yul\":1056:1119   */\n      tag_145\n      jumpi\n        /* \"#utility.yul\":1115:1116   */\n      0x00\n        /* \"#utility.yul\":1112:1113   */\n      0x00\n        /* \"#utility.yul\":1105:1117   */\n      revert\n        /* \"#utility.yul\":1056:1119   */\n    tag_145:\n        /* \"#utility.yul\":1003:1125   */\n      pop\n      jump\t// out\n        /* \"#utility.yul\":1131:1270   */\n    tag_108:\n        /* \"#utility.yul\":1177:1182   */\n      0x00\n        /* \"#utility.yul\":1215:1221   */\n      dup2\n        /* \"#utility.yul\":1202:1222   */\n      calldataload\n        /* \"#utility.yul\":1193:1222   */\n      swap1\n      pop\n        /* \"#utility.yul\":1231:1264   */\n      tag_147\n        /* \"#utility.yul\":1258:1263   */\n      dup2\n        /* \"#utility.yul\":1231:1264   */\n      tag_107\n      jump\t// in\n    tag_147:\n        /* \"#utility.yul\":1131:1270   */\n      swap3\n      swap2\n      pop\n      pop\n      jump\t// out\n        /* \"#utility.yul\":1276:1605   */\n    tag_27:\n        /* \"#utility.yul\":1335:1341   */\n      0x00\n        /* \"#utility.yul\":1384:1386   */\n      0x20\n        /* \"#utility.yul\":1372:1381   */\n      dup3\n        /* \"#utility.yul\":1363:1370   */\n      dup5\n        /* \"#utility.yul\":1359:1382   */\n      sub\n        /* \"#utility.yul\":1355:1387   */\n      slt\n        /* \"#utility.yul\":1352:1471   */\n      iszero\n      tag_149\n      jumpi\n        /* \"#utility.yul\":1390:1469   */\n      tag_150\n      tag_103\n      jump\t// in\n    tag_150:\n        /* \"#utility.yul\":1352:1471   */\n    tag_149:\n        /* \"#utility.yul\":1510:1511   */\n      0x00\n        /* \"#utility.yul\":1535:1588   */\n      tag_151\n        /* \"#utility.yul\":1580:1587   */\n      dup5\n        /* \"#utility.yul\":1571:1577   */\n      dup3\n        /* \"#utility.yul\":1560:1569   */\n      dup6\n        /* \"#utility.yul\":1556:1578   */\n      add\n        /* \"#utility.yul\":1535:1588   */\n      tag_108\n      jump\t// in\n    tag_151:\n        /* \"#utility.yul\":1525:1588   */\n      swap2\n      pop\n        /* \"#utility.yul\":1481:1598   */\n      pop\n        /* \"#utility.yul\":1276:1605   */\n      swap3\n      swap2\n      pop\n      pop\n      jump\t// out\n        /* \"#utility.yul\":1611:1729   */\n    tag_109:\n        /* \"#utility.yul\":1698:1722   */\n      tag_153\n        /* \"#utility.yul\":1716:1721   */\n      dup2\n        /* \"#utility.yul\":1698:1722   */\n      tag_106\n      jump\t// in\n    tag_153:\n        /* \"#utility.yul\":1693:1696   */\n      dup3\n        /* \"#utility.yul\":1686:1723   */\n      mstore\n        /* \"#utility.yul\":1611:1729   */\n      pop\n      pop\n      jump\t// out\n        /* \"#utility.yul\":1735:1957   */\n    tag_35:\n        /* \"#utility.yul\":1828:1832   */\n      0x00\n        /* \"#utility.yul\":1866:1868   */\n      0x20\n        /* \"#utility.yul\":1855:1864   */\n      dup3\n        /* \"#utility.yul\":1851:1869   */\n      add\n        /* \"#utility.yul\":1843:1869   */\n      swap1\n      pop\n        /* \"#utility.yul\":1879:1950   */\n      tag_155\n        /* \"#utility.yul\":1947:1948   */\n      0x00\n        /* \"#utility.yul\":1936:1945   */\n      dup4\n        /* \"#utility.yul\":1932:1949   */\n      add\n        /* \"#utility.yul\":1923:1929   */\n      dup5\n        /* \"#utility.yul\":1879:1950   */\n      tag_109\n      jump\t// in\n    tag_155:\n        /* \"#utility.yul\":1735:1957   */\n      swap3\n      swap2\n      pop\n      pop\n      jump\t// out\n        /* \"#utility.yul\":1963:2085   */\n    tag_110:\n        /* \"#utility.yul\":2036:2060   */\n      tag_157\n        /* \"#utility.yul\":2054:2059   */\n      dup2\n        /* \"#utility.yul\":2036:2060   */\n      tag_100\n      jump\t// in\n    tag_157:\n        /* \"#utility.yul\":2029:2034   */\n      dup2\n        /* \"#utility.yul\":2026:2061   */\n      eq\n        /* \"#utility.yul\":2016:2079   */\n      tag_158\n      jumpi\n        /* \"#utility.yul\":2075:2076   */\n      0x00\n        /* \"#utility.yul\":2072:2073   */\n      0x00\n        /* \"#utility.yul\":2065:2077   */\n      revert\n        /* \"#utility.yul\":2016:2079   */\n    tag_158:\n        /* \"#utility.yul\":1963:2085   */\n      pop\n      jump\t// out\n        /* \"#utility.yul\":2091:2230   */\n    tag_111:\n        /* \"#utility.yul\":2137:2142   */\n      0x00\n        /* \"#utility.yul\":2175:2181   */\n      dup2\n        /* \"#utility.yul\":2162:2182   */\n      calldataload\n        /* \"#utility.yul\":2153:2182   */\n      swap1\n      pop\n        /* \"#utility.yul\":2191:2224   */\n      tag_160\n        /* \"#utility.yul\":2218:2223   */\n      dup2\n        /* \"#utility.yul\":2191:2224   */\n      tag_110\n      jump\t// in\n    tag_160:\n        /* \"#utility.yul\":2091:2230   */\n      swap3\n      swap2\n      pop\n      pop\n      jump\t// out\n        /* \"#utility.yul\":2236:2565   */\n    tag_39:\n        /* \"#utility.yul\":2295:2301   */\n      0x00\n        /* \"#utility.yul\":2344:2346   */\n      0x20\n        /* \"#utility.yul\":2332:2341   */\n      dup3\n        /* \"#utility.yul\":2323:2330   */\n      dup5\n        /* \"#utility.yul\":2319:2342   */\n      sub\n        /* \"#utility.yul\":2315:2347   */\n      slt\n        /* \"#utility.yul\":2312:2431   */\n      iszero\n      tag_162\n      jumpi\n        /* \"#utility.yul\":2350:2429   */\n      tag_163\n      tag_103\n      jump\t// in\n    tag_163:\n        /* \"#utility.yul\":2312:2431   */\n    tag_162:\n        /* \"#utility.yul\":2470:2471   */\n      0x00\n        /* \"#utility.yul\":2495:2548   */\n      tag_164\n        /* \"#utility.yul\":2540:2547   */\n      dup5\n        /* \"#utility.yul\":2531:2537   */\n      dup3\n        /* \"#utility.yul\":2520:2529   */\n      dup6\n        /* \"#utility.yul\":2516:2538   */\n      add\n        /* \"#utility.yul\":2495:2548   */\n      tag_111\n      jump\t// in\n    tag_164:\n        /* \"#utility.yul\":2485:2548   */\n      swap2\n      pop\n        /* \"#utility.yul\":2441:2558   */\n      pop\n        /* \"#utility.yul\":2236:2565   */\n      swap3\n      swap2\n      pop\n      pop\n      jump\t// out\n        /* \"#utility.yul\":2571:2740   */\n    tag_112:\n        /* \"#utility.yul\":2655:2666   */\n      0x00\n        /* \"#utility.yul\":2689:2695   */\n      dup3\n        /* \"#utility.yul\":2684:2687   */\n      dup3\n        /* \"#utility.yul\":2677:2696   */\n      mstore\n        /* \"#utility.yul\":2729:2733   */\n      0x20\n        /* \"#utility.yul\":2724:2727   */\n      dup3\n        /* \"#utility.yul\":2720:2734   */\n      add\n        /* \"#utility.yul\":2705:2734   */\n      swap1\n      pop\n        /* \"#utility.yul\":2571:2740   */\n      swap3\n      swap2\n      pop\n      pop\n      jump\t// out\n        /* \"#utility.yul\":2746:2918   */\n    tag_113:\n        /* \"#utility.yul\":2886:2910   */\n      0x6469646e27742073656e6420656e6f7567682065746800000000000000000000\n        /* \"#utility.yul\":2882:2883   */\n      0x00\n        /* \"#utility.yul\":2874:2880   */\n      dup3\n        /* \"#utility.yul\":2870:2884   */\n      add\n        /* \"#utility.yul\":2863:2911   */\n      mstore\n        /* \"#utility.yul\":2746:2918   */\n      pop\n      jump\t// out\n        /* \"#utility.yul\":2924:3290   */\n    tag_114:\n        /* \"#utility.yul\":3066:3069   */\n      0x00\n        /* \"#utility.yul\":3087:3154   */\n      tag_168\n        /* \"#utility.yul\":3151:3153   */\n      0x16\n        /* \"#utility.yul\":3146:3149   */\n      dup4\n        /* \"#utility.yul\":3087:3154   */\n      tag_112\n      jump\t// in\n    tag_168:\n        /* \"#utility.yul\":3080:3154   */\n      swap2\n      pop\n        /* \"#utility.yul\":3163:3256   */\n      tag_169\n        /* \"#utility.yul\":3252:3255   */\n      dup3\n        /* \"#utility.yul\":3163:3256   */\n      tag_113\n      jump\t// in\n    tag_169:\n        /* \"#utility.yul\":3281:3283   */\n      0x20\n        /* \"#utility.yul\":3276:3279   */\n      dup3\n        /* \"#utility.yul\":3272:3284   */\n      add\n        /* \"#utility.yul\":3265:3284   */\n      swap1\n      pop\n        /* \"#utility.yul\":2924:3290   */\n      swap2\n      swap1\n      pop\n      jump\t// out\n        /* \"#utility.yul\":3296:3715   */\n    tag_47:\n        /* \"#utility.yul\":3462:3466   */\n      0x00\n        /* \"#utility.yul\":3500:3502   */\n      0x20\n        /* \"#utility.yul\":3489:3498   */\n      dup3\n        /* \"#utility.yul\":3485:3503   */\n      add\n        /* \"#utility.yul\":3477:3503   */\n      swap1\n      pop\n        /* \"#utility.yul\":3549:3558   */\n      dup2\n        /* \"#utility.yul\":3543:3547   */\n      dup2\n        /* \"#utility.yul\":3539:3559   */\n      sub\n        /* \"#utility.yul\":3535:3536   */\n      0x00\n        /* \"#utility.yul\":3524:3533   */\n      dup4\n        /* \"#utility.yul\":3520:3537   */\n      add\n        /* \"#utility.yul\":3513:3560   */\n      mstore\n        /* \"#utility.yul\":3577:3708   */\n      tag_171\n        /* \"#utility.yul\":3703:3707   */\n      dup2\n        /* \"#utility.yul\":3577:3708   */\n      tag_114\n      jump\t// in\n    tag_171:\n        /* \"#utility.yul\":3569:3708   */\n      swap1\n      pop\n        /* \"#utility.yul\":3296:3715   */\n      swap2\n      swap1\n      pop\n      jump\t// out\n        /* \"#utility.yul\":3721:3901   */\n    tag_115:\n        /* \"#utility.yul\":3769:3846   */\n      0x4e487b7100000000000000000000000000000000000000000000000000000000\n        /* \"#utility.yul\":3766:3767   */\n      0x00\n        /* \"#utility.yul\":3759:3847   */\n      mstore\n        /* \"#utility.yul\":3866:3870   */\n      0x11\n        /* \"#utility.yul\":3863:3864   */\n      0x04\n        /* \"#utility.yul\":3856:3871   */\n      mstore\n        /* \"#utility.yul\":3890:3894   */\n      0x24\n        /* \"#utility.yul\":3887:3888   */\n      0x00\n        /* \"#utility.yul\":3880:3895   */\n      revert\n        /* \"#utility.yul\":3907:4098   */\n    tag_50:\n        /* \"#utility.yul\":3947:3950   */\n      0x00\n        /* \"#utility.yul\":3966:3986   */\n      tag_174\n        /* \"#utility.yul\":3984:3985   */\n      dup3\n        /* \"#utility.yul\":3966:3986   */\n      tag_100\n      jump\t// in\n    tag_174:\n        /* \"#utility.yul\":3961:3986   */\n      swap2\n      pop\n        /* \"#utility.yul\":4000:4020   */\n      tag_175\n        /* \"#utility.yul\":4018:4019   */\n      dup4\n        /* \"#utility.yul\":4000:4020   */\n      tag_100\n      jump\t// in\n    tag_175:\n        /* \"#utility.yul\":3995:4020   */\n      swap3\n      pop\n        /* \"#utility.yul\":4043:4044   */\n      dup3\n        /* \"#utility.yul\":4040:4041   */\n      dup3\n        /* \"#utility.yul\":4036:4045   */\n      add\n        /* \"#utility.yul\":4029:4045   */\n      swap1\n      pop\n        /* \"#utility.yul\":4064:4067   */\n      dup1\n        /* \"#utility.yul\":4061:4062   */\n      dup3\n        /* \"#utility.yul\":4058:4068   */\n      gt\n        /* \"#utility.yul\":4055:4091   */\n      iszero\n      tag_176\n      jumpi\n        /* \"#utility.yul\":4071:4089   */\n      tag_177\n      tag_115\n      jump\t// in\n    tag_177:\n        /* \"#utility.yul\":4055:4091   */\n    tag_176:\n        /* \"#utility.yul\":3907:4098   */\n      swap3\n      swap2\n      pop\n      pop\n      jump\t// out\n        /* \"#utility.yul\":4104:4276   */\n    tag_116:\n        /* \"#utility.yul\":4244:4268   */\n      0x6f6e6c79206f776e65722063616e20646f207468697300000000000000000000\n        /* \"#utility.yul\":4240:4241   */\n      0x00\n        /* \"#utility.yul\":4232:4238   */\n      dup3\n        /* \"#utility.yul\":4228:4242   */\n      add\n        /* \"#utility.yul\":4221:4269   */\n      mstore\n        /* \"#utility.yul\":4104:4276   */\n      pop\n      jump\t// out\n        /* \"#utility.yul\":4282:4648   */\n    tag_117:\n        /* \"#utility.yul\":4424:4427   */\n      0x00\n        /* \"#utility.yul\":4445:4512   */\n      tag_180\n        /* \"#utility.yul\":4509:4511   */\n      0x16\n        /* \"#utility.yul\":4504:4507   */\n      dup4\n        /* \"#utility.yul\":4445:4512   */\n      tag_112\n      jump\t// in\n    tag_180:\n        /* \"#utility.yul\":4438:4512   */\n      swap2\n      pop\n        /* \"#utility.yul\":4521:4614   */\n      tag_181\n        /* \"#utility.yul\":4610:4613   */\n      dup3\n        /* \"#utility.yul\":4521:4614   */\n      tag_116\n      jump\t// in\n    tag_181:\n        /* \"#utility.yul\":4639:4641   */\n      0x20\n        /* \"#utility.yul\":4634:4637   */\n      dup3\n        /* \"#utility.yul\":4630:4642   */\n      add\n        /* \"#utility.yul\":4623:4642   */\n      swap1\n      pop\n        /* \"#utility.yul\":4282:4648   */\n      swap2\n      swap1\n      pop\n      jump\t// out\n        /* \"#utility.yul\":4654:5073   */\n    tag_54:\n        /* \"#utility.yul\":4820:4824   */\n      0x00\n        /* \"#utility.yul\":4858:4860   */\n      0x20\n        /* \"#utility.yul\":4847:4856   */\n      dup3\n        /* \"#utility.yul\":4843:4861   */\n      add\n        /* \"#utility.yul\":4835:4861   */\n      swap1\n      pop\n        /* \"#utility.yul\":4907:4916   */\n      dup2\n        /* \"#utility.yul\":4901:4905   */\n      dup2\n        /* \"#utility.yul\":4897:4917   */\n      sub\n        /* \"#utility.yul\":4893:4894   */\n      0x00\n        /* \"#utility.yul\":4882:4891   */\n      dup4\n        /* \"#utility.yul\":4878:4895   */\n      add\n        /* \"#utility.yul\":4871:4918   */\n      mstore\n        /* \"#utility.yul\":4935:5066   */\n      tag_183\n        /* \"#utility.yul\":5061:5065   */\n      dup2\n        /* \"#utility.yul\":4935:5066   */\n      tag_117\n      jump\t// in\n    tag_183:\n        /* \"#utility.yul\":4927:5066   */\n      swap1\n      pop\n        /* \"#utility.yul\":4654:5073   */\n      swap2\n      swap1\n      pop\n      jump\t// out\n        /* \"#utility.yul\":5079:5259   */\n    tag_61:\n        /* \"#utility.yul\":5127:5204   */\n      0x4e487b7100000000000000000000000000000000000000000000000000000000\n        /* \"#utility.yul\":5124:5125   */\n      0x00\n        /* \"#utility.yul\":5117:5205   */\n      mstore\n        /* \"#utility.yul\":5224:5228   */\n      0x32\n        /* \"#utility.yul\":5221:5222   */\n      0x04\n        /* \"#utility.yul\":5214:5229   */\n      mstore\n        /* \"#utility.yul\":5248:5252   */\n      0x24\n        /* \"#utility.yul\":5245:5246   */\n      0x00\n        /* \"#utility.yul\":5238:5253   */\n      revert\n        /* \"#utility.yul\":5265:5445   */\n    tag_65:\n        /* \"#utility.yul\":5313:5390   */\n      0x4e487b7100000000000000000000000000000000000000000000000000000000\n        /* \"#utility.yul\":5310:5311   */\n      0x00\n        /* \"#utility.yul\":5303:5391   */\n      mstore\n        /* \"#utility.yul\":5410:5414   */\n      0x41\n        /* \"#utility.yul\":5407:5408   */\n      0x04\n        /* \"#utility.yul\":5400:5415   */\n      mstore\n        /* \"#utility.yul\":5434:5438   */\n      0x24\n        /* \"#utility.yul\":5431:5432   */\n      0x00\n        /* \"#utility.yul\":5424:5439   */\n      revert\n        /* \"#utility.yul\":5451:5598   */\n    tag_118:\n        /* \"#utility.yul\":5552:5563   */\n      0x00\n        /* \"#utility.yul\":5589:5592   */\n      dup2\n        /* \"#utility.yul\":5574:5592   */\n      swap1\n      pop\n        /* \"#utility.yul\":5451:5598   */\n      swap3\n      swap2\n      pop\n      pop\n      jump\t// out\n        /* \"#utility.yul\":5604:5718   */\n    tag_119:\n      pop\n      jump\t// out\n        /* \"#utility.yul\":5724:6122   */\n    tag_120:\n        /* \"#utility.yul\":5883:5886   */\n      0x00\n        /* \"#utility.yul\":5904:5987   */\n      tag_189\n        /* \"#utility.yul\":5985:5986   */\n      0x00\n        /* \"#utility.yul\":5980:5983   */\n      dup4\n        /* \"#utility.yul\":5904:5987   */\n      tag_118\n      jump\t// in\n    tag_189:\n        /* \"#utility.yul\":5897:5987   */\n      swap2\n      pop\n        /* \"#utility.yul\":5996:6089   */\n      tag_190\n        /* \"#utility.yul\":6085:6088   */\n      dup3\n        /* \"#utility.yul\":5996:6089   */\n      tag_119\n      jump\t// in\n    tag_190:\n        /* \"#utility.yul\":6114:6115   */\n      0x00\n        /* \"#utility.yul\":6109:6112   */\n      dup3\n        /* \"#utility.yul\":6105:6116   */\n      add\n        /* \"#utility.yul\":6098:6116   */\n      swap1\n      pop\n        /* \"#utility.yul\":5724:6122   */\n      swap2\n      swap1\n      pop\n      jump\t// out\n        /* \"#utility.yul\":6128:6507   */\n    tag_70:\n        /* \"#utility.yul\":6312:6315   */\n      0x00\n        /* \"#utility.yul\":6334:6481   */\n      tag_192\n        /* \"#utility.yul\":6477:6480   */\n      dup3\n        /* \"#utility.yul\":6334:6481   */\n      tag_120\n      jump\t// in\n    tag_192:\n        /* \"#utility.yul\":6327:6481   */\n      swap2\n      pop\n        /* \"#utility.yul\":6498:6501   */\n      dup2\n        /* \"#utility.yul\":6491:6501   */\n      swap1\n      pop\n        /* \"#utility.yul\":6128:6507   */\n      swap2\n      swap1\n      pop\n      jump\t// out\n        /* \"#utility.yul\":6513:6674   */\n    tag_121:\n        /* \"#utility.yul\":6653:6666   */\n      0x63616c6c206661696c6564000000000000000000000000000000000000000000\n        /* \"#utility.yul\":6649:6650   */\n      0x00\n        /* \"#utility.yul\":6641:6647   */\n      dup3\n        /* \"#utility.yul\":6637:6651   */\n      add\n        /* \"#utility.yul\":6630:6667   */\n      mstore\n        /* \"#utility.yul\":6513:6674   */\n      pop\n      jump\t// out\n        /* \"#utility.yul\":6680:7046   */\n    tag_122:\n        /* \"#utility.yul\":6822:6825   */\n      0x00\n        /* \"#utility.yul\":6843:6910   */\n      tag_195\n        /* \"#utility.yul\":6907:6909   */\n      0x0b\n        /* \"#utility.yul\":6902:6905   */\n      dup4\n        /* \"#utility.yul\":6843:6910   */\n      tag_112\n      jump\t// in\n    tag_195:\n        /* \"#utility.yul\":6836:6910   */\n      swap2\n      pop\n        /* \"#utility.yul\":6919:7012   */\n      tag_196\n        /* \"#utility.yul\":7008:7011   */\n      dup3\n        /* \"#utility.yul\":6919:7012   */\n      tag_121\n      jump\t// in\n    tag_196:\n        /* \"#utility.yul\":7037:7039   */\n      0x20\n        /* \"#utility.yul\":7032:7035   */\n      dup3\n        /* \"#utility.yul\":7028:7040   */\n      add\n        /* \"#utility.yul\":7021:7040   */\n      swap1\n      pop\n        /* \"#utility.yul\":6680:7046   */\n      swap2\n      swap1\n      pop\n      jump\t// out\n        /* \"#utility.yul\":7052:7471   */\n    tag_76:\n        /* \"#utility.yul\":7218:7222   */\n      0x00\n        /* \"#utility.yul\":7256:7258   */\n      0x20\n        /* \"#utility.yul\":7245:7254   */\n      dup3\n        /* \"#utility.yul\":7241:7259   */\n      add\n        /* \"#utility.yul\":7233:7259   */\n      swap1\n      pop\n        /* \"#utility.yul\":7305:7314   */\n      dup2\n        /* \"#utility.yul\":7299:7303   */\n      dup2\n        /* \"#utility.yul\":7295:7315   */\n      sub\n        /* \"#utility.yul\":7291:7292   */\n      0x00\n        /* \"#utility.yul\":7280:7289   */\n      dup4\n        /* \"#utility.yul\":7276:7293   */\n      add\n        /* \"#utility.yul\":7269:7316   */\n      mstore\n        /* \"#utility.yul\":7333:7464   */\n      tag_198\n        /* \"#utility.yul\":7459:7463   */\n      dup2\n        /* \"#utility.yul\":7333:7464   */\n      tag_122\n      jump\t// in\n    tag_198:\n        /* \"#utility.yul\":7325:7464   */\n      swap1\n      pop\n        /* \"#utility.yul\":7052:7471   */\n      swap2\n      swap1\n      pop\n      jump\t// out\n        /* \"#utility.yul\":7477:7887   */\n    tag_83:\n        /* \"#utility.yul\":7517:7524   */\n      0x00\n        /* \"#utility.yul\":7540:7560   */\n      tag_200\n        /* \"#utility.yul\":7558:7559   */\n      dup3\n        /* \"#utility.yul\":7540:7560   */\n      tag_100\n      jump\t// in\n    tag_200:\n        /* \"#utility.yul\":7535:7560   */\n      swap2\n      pop\n        /* \"#utility.yul\":7574:7594   */\n      tag_201\n        /* \"#utility.yul\":7592:7593   */\n      dup4\n        /* \"#utility.yul\":7574:7594   */\n      tag_100\n      jump\t// in\n    tag_201:\n        /* \"#utility.yul\":7569:7594   */\n      swap3\n      pop\n        /* \"#utility.yul\":7629:7630   */\n      dup3\n        /* \"#utility.yul\":7626:7627   */\n      dup3\n        /* \"#utility.yul\":7622:7631   */\n      mul\n        /* \"#utility.yul\":7651:7681   */\n      tag_202\n        /* \"#utility.yul\":7669:7680   */\n      dup2\n        /* \"#utility.yul\":7651:7681   */\n      tag_100\n      jump\t// in\n    tag_202:\n        /* \"#utility.yul\":7640:7681   */\n      swap2\n      pop\n        /* \"#utility.yul\":7830:7831   */\n      dup3\n        /* \"#utility.yul\":7821:7828   */\n      dup3\n        /* \"#utility.yul\":7817:7832   */\n      div\n        /* \"#utility.yul\":7814:7815   */\n      dup5\n        /* \"#utility.yul\":7811:7833   */\n      eq\n        /* \"#utility.yul\":7791:7792   */\n      dup4\n        /* \"#utility.yul\":7784:7793   */\n      iszero\n        /* \"#utility.yul\":7764:7847   */\n      or\n        /* \"#utility.yul\":7741:7880   */\n      tag_203\n      jumpi\n        /* \"#utility.yul\":7860:7878   */\n      tag_204\n      tag_115\n      jump\t// in\n    tag_204:\n        /* \"#utility.yul\":7741:7880   */\n    tag_203:\n        /* \"#utility.yul\":7525:7887   */\n      pop\n        /* \"#utility.yul\":7477:7887   */\n      swap3\n      swap2\n      pop\n      pop\n      jump\t// out\n        /* \"#utility.yul\":7893:8073   */\n    tag_123:\n        /* \"#utility.yul\":7941:8018   */\n      0x4e487b7100000000000000000000000000000000000000000000000000000000\n        /* \"#utility.yul\":7938:7939   */\n      0x00\n        /* \"#utility.yul\":7931:8019   */\n      mstore\n        /* \"#utility.yul\":8038:8042   */\n      0x12\n        /* \"#utility.yul\":8035:8036   */\n      0x04\n        /* \"#utility.yul\":8028:8043   */\n      mstore\n        /* \"#utility.yul\":8062:8066   */\n      0x24\n        /* \"#utility.yul\":8059:8060   */\n      0x00\n        /* \"#utility.yul\":8052:8067   */\n      revert\n        /* \"#utility.yul\":8079:8264   */\n    tag_85:\n        /* \"#utility.yul\":8119:8120   */\n      0x00\n        /* \"#utility.yul\":8136:8156   */\n      tag_207\n        /* \"#utility.yul\":8154:8155   */\n      dup3\n        /* \"#utility.yul\":8136:8156   */\n      tag_100\n      jump\t// in\n    tag_207:\n        /* \"#utility.yul\":8131:8156   */\n      swap2\n      pop\n        /* \"#utility.yul\":8170:8190   */\n      tag_208\n        /* \"#utility.yul\":8188:8189   */\n      dup4\n        /* \"#utility.yul\":8170:8190   */\n      tag_100\n      jump\t// in\n    tag_208:\n        /* \"#utility.yul\":8165:8190   */\n      swap3\n      pop\n        /* \"#utility.yul\":8209:8210   */\n      dup3\n        /* \"#utility.yul\":8199:8234   */\n      tag_209\n      jumpi\n        /* \"#utility.yul\":8214:8232   */\n      tag_210\n      tag_123\n      jump\t// in\n    tag_210:\n        /* \"#utility.yul\":8199:8234   */\n    tag_209:\n        /* \"#utility.yul\":8256:8257   */\n      dup3\n        /* \"#utility.yul\":8253:8254   */\n      dup3\n        /* \"#utility.yul\":8249:8258   */\n      div\n        /* \"#utility.yul\":8244:8258   */\n      swap1\n      pop\n        /* \"#utility.yul\":8079:8264   */\n      swap3\n      swap2\n      pop\n      pop\n      jump\t// out\n        /* \"#utility.yul\":8270:8375   */\n    tag_124:\n        /* \"#utility.yul\":8306:8313   */\n      0x00\n        /* \"#utility.yul\":8346:8368   */\n      0xffffffffffffffffffff\n        /* \"#utility.yul\":8339:8344   */\n      dup3\n        /* \"#utility.yul\":8335:8369   */\n      and\n        /* \"#utility.yul\":8324:8369   */\n      swap1\n      pop\n        /* \"#utility.yul\":8270:8375   */\n      swap2\n      swap1\n      pop\n      jump\t// out\n        /* \"#utility.yul\":8381:8501   */\n    tag_125:\n        /* \"#utility.yul\":8453:8476   */\n      tag_213\n        /* \"#utility.yul\":8470:8475   */\n      dup2\n        /* \"#utility.yul\":8453:8476   */\n      tag_124\n      jump\t// in\n    tag_213:\n        /* \"#utility.yul\":8446:8451   */\n      dup2\n        /* \"#utility.yul\":8443:8477   */\n      eq\n        /* \"#utility.yul\":8433:8495   */\n      tag_214\n      jumpi\n        /* \"#utility.yul\":8491:8492   */\n      0x00\n        /* \"#utility.yul\":8488:8489   */\n      0x00\n        /* \"#utility.yul\":8481:8493   */\n      revert\n        /* \"#utility.yul\":8433:8495   */\n    tag_214:\n        /* \"#utility.yul\":8381:8501   */\n      pop\n      jump\t// out\n        /* \"#utility.yul\":8507:8648   */\n    tag_126:\n        /* \"#utility.yul\":8563:8568   */\n      0x00\n        /* \"#utility.yul\":8594:8600   */\n      dup2\n        /* \"#utility.yul\":8588:8601   */\n      mload\n        /* \"#utility.yul\":8579:8601   */\n      swap1\n      pop\n        /* \"#utility.yul\":8610:8642   */\n      tag_216\n        /* \"#utility.yul\":8636:8641   */\n      dup2\n        /* \"#utility.yul\":8610:8642   */\n      tag_125\n      jump\t// in\n    tag_216:\n        /* \"#utility.yul\":8507:8648   */\n      swap3\n      swap2\n      pop\n      pop\n      jump\t// out\n        /* \"#utility.yul\":8654:8730   */\n    tag_127:\n        /* \"#utility.yul\":8690:8697   */\n      0x00\n        /* \"#utility.yul\":8719:8724   */\n      dup2\n        /* \"#utility.yul\":8708:8724   */\n      swap1\n      pop\n        /* \"#utility.yul\":8654:8730   */\n      swap2\n      swap1\n      pop\n      jump\t// out\n        /* \"#utility.yul\":8736:8856   */\n    tag_128:\n        /* \"#utility.yul\":8808:8831   */\n      tag_219\n        /* \"#utility.yul\":8825:8830   */\n      dup2\n        /* \"#utility.yul\":8808:8831   */\n      tag_127\n      jump\t// in\n    tag_219:\n        /* \"#utility.yul\":8801:8806   */\n      dup2\n        /* \"#utility.yul\":8798:8832   */\n      eq\n        /* \"#utility.yul\":8788:8850   */\n      tag_220\n      jumpi\n        /* \"#utility.yul\":8846:8847   */\n      0x00\n        /* \"#utility.yul\":8843:8844   */\n      0x00\n        /* \"#utility.yul\":8836:8848   */\n      revert\n        /* \"#utility.yul\":8788:8850   */\n    tag_220:\n        /* \"#utility.yul\":8736:8856   */\n      pop\n      jump\t// out\n        /* \"#utility.yul\":8862:9003   */\n    tag_129:\n        /* \"#utility.yul\":8918:8923   */\n      0x00\n        /* \"#utility.yul\":8949:8955   */\n      dup2\n        /* \"#utility.yul\":8943:8956   */\n      mload\n        /* \"#utility.yul\":8934:8956   */\n      swap1\n      pop\n        /* \"#utility.yul\":8965:8997   */\n      tag_222\n        /* \"#utility.yul\":8991:8996   */\n      dup2\n        /* \"#utility.yul\":8965:8997   */\n      tag_128\n      jump\t// in\n    tag_222:\n        /* \"#utility.yul\":8862:9003   */\n      swap3\n      swap2\n      pop\n      pop\n      jump\t// out\n        /* \"#utility.yul\":9009:9152   */\n    tag_130:\n        /* \"#utility.yul\":9066:9071   */\n      0x00\n        /* \"#utility.yul\":9097:9103   */\n      dup2\n        /* \"#utility.yul\":9091:9104   */\n      mload\n        /* \"#utility.yul\":9082:9104   */\n      swap1\n      pop\n        /* \"#utility.yul\":9113:9146   */\n      tag_224\n        /* \"#utility.yul\":9140:9145   */\n      dup2\n        /* \"#utility.yul\":9113:9146   */\n      tag_110\n      jump\t// in\n    tag_224:\n        /* \"#utility.yul\":9009:9152   */\n      swap3\n      swap2\n      pop\n      pop\n      jump\t// out\n        /* \"#utility.yul\":9158:10129   */\n    tag_90:\n        /* \"#utility.yul\":9261:9267   */\n      0x00\n        /* \"#utility.yul\":9269:9275   */\n      0x00\n        /* \"#utility.yul\":9277:9283   */\n      0x00\n        /* \"#utility.yul\":9285:9291   */\n      0x00\n        /* \"#utility.yul\":9293:9299   */\n      0x00\n        /* \"#utility.yul\":9342:9345   */\n      0xa0\n        /* \"#utility.yul\":9330:9339   */\n      dup7\n        /* \"#utility.yul\":9321:9328   */\n      dup9\n        /* \"#utility.yul\":9317:9340   */\n      sub\n        /* \"#utility.yul\":9313:9346   */\n      slt\n        /* \"#utility.yul\":9310:9430   */\n      iszero\n      tag_226\n      jumpi\n        /* \"#utility.yul\":9349:9428   */\n      tag_227\n      tag_103\n      jump\t// in\n    tag_227:\n        /* \"#utility.yul\":9310:9430   */\n    tag_226:\n        /* \"#utility.yul\":9469:9470   */\n      0x00\n        /* \"#utility.yul\":9494:9557   */\n      tag_228\n        /* \"#utility.yul\":9549:9556   */\n      dup9\n        /* \"#utility.yul\":9540:9546   */\n      dup3\n        /* \"#utility.yul\":9529:9538   */\n      dup10\n        /* \"#utility.yul\":9525:9547   */\n      add\n        /* \"#utility.yul\":9494:9557   */\n      tag_126\n      jump\t// in\n    tag_228:\n        /* \"#utility.yul\":9484:9557   */\n      swap6\n      pop\n        /* \"#utility.yul\":9440:9567   */\n      pop\n        /* \"#utility.yul\":9606:9608   */\n      0x20\n        /* \"#utility.yul\":9632:9695   */\n      tag_229\n        /* \"#utility.yul\":9687:9694   */\n      dup9\n        /* \"#utility.yul\":9678:9684   */\n      dup3\n        /* \"#utility.yul\":9667:9676   */\n      dup10\n        /* \"#utility.yul\":9663:9685   */\n      add\n        /* \"#utility.yul\":9632:9695   */\n      tag_129\n      jump\t// in\n    tag_229:\n        /* \"#utility.yul\":9622:9695   */\n      swap5\n      pop\n        /* \"#utility.yul\":9577:9705   */\n      pop\n        /* \"#utility.yul\":9744:9746   */\n      0x40\n        /* \"#utility.yul\":9770:9834   */\n      tag_230\n        /* \"#utility.yul\":9826:9833   */\n      dup9\n        /* \"#utility.yul\":9817:9823   */\n      dup3\n        /* \"#utility.yul\":9806:9815   */\n      dup10\n        /* \"#utility.yul\":9802:9824   */\n      add\n        /* \"#utility.yul\":9770:9834   */\n      tag_130\n      jump\t// in\n    tag_230:\n        /* \"#utility.yul\":9760:9834   */\n      swap4\n      pop\n        /* \"#utility.yul\":9715:9844   */\n      pop\n        /* \"#utility.yul\":9883:9885   */\n      0x60\n        /* \"#utility.yul\":9909:9973   */\n      tag_231\n        /* \"#utility.yul\":9965:9972   */\n      dup9\n        /* \"#utility.yul\":9956:9962   */\n      dup3\n        /* \"#utility.yul\":9945:9954   */\n      dup10\n        /* \"#utility.yul\":9941:9963   */\n      add\n        /* \"#utility.yul\":9909:9973   */\n      tag_130\n      jump\t// in\n    tag_231:\n        /* \"#utility.yul\":9899:9973   */\n      swap3\n      pop\n        /* \"#utility.yul\":9854:9983   */\n      pop\n        /* \"#utility.yul\":10022:10025   */\n      0x80\n        /* \"#utility.yul\":10049:10112   */\n      tag_232\n        /* \"#utility.yul\":10104:10111   */\n      dup9\n        /* \"#utility.yul\":10095:10101   */\n      dup3\n        /* \"#utility.yul\":10084:10093   */\n      dup10\n        /* \"#utility.yul\":10080:10102   */\n      add\n        /* \"#utility.yul\":10049:10112   */\n      tag_126\n      jump\t// in\n    tag_232:\n        /* \"#utility.yul\":10039:10112   */\n      swap2\n      pop\n        /* \"#utility.yul\":9993:10122   */\n      pop\n        /* \"#utility.yul\":9158:10129   */\n      swap3\n      swap6\n      pop\n      swap3\n      swap6\n      swap1\n      swap4\n      pop\n      jump\t// out\n        /* \"#utility.yul\":10135:10691   */\n    tag_92:\n        /* \"#utility.yul\":10174:10181   */\n      0x00\n        /* \"#utility.yul\":10197:10216   */\n      tag_234\n        /* \"#utility.yul\":10214:10215   */\n      dup3\n        /* \"#utility.yul\":10197:10216   */\n      tag_127\n      jump\t// in\n    tag_234:\n        /* \"#utility.yul\":10192:10216   */\n      swap2\n      pop\n        /* \"#utility.yul\":10230:10249   */\n      tag_235\n        /* \"#utility.yul\":10247:10248   */\n      dup4\n        /* \"#utility.yul\":10230:10249   */\n      tag_127\n      jump\t// in\n    tag_235:\n        /* \"#utility.yul\":10225:10249   */\n      swap3\n      pop\n        /* \"#utility.yul\":10284:10285   */\n      dup3\n        /* \"#utility.yul\":10281:10282   */\n      dup3\n        /* \"#utility.yul\":10277:10286   */\n      mul\n        /* \"#utility.yul\":10306:10335   */\n      tag_236\n        /* \"#utility.yul\":10323:10334   */\n      dup2\n        /* \"#utility.yul\":10306:10335   */\n      tag_127\n      jump\t// in\n    tag_236:\n        /* \"#utility.yul\":10295:10335   */\n      swap2\n      pop\n        /* \"#utility.yul\":10393:10459   */\n      0x8000000000000000000000000000000000000000000000000000000000000000\n        /* \"#utility.yul\":10390:10391   */\n      dup5\n        /* \"#utility.yul\":10387:10460   */\n      eq\n        /* \"#utility.yul\":10383:10384   */\n      0x00\n        /* \"#utility.yul\":10380:10381   */\n      dup5\n        /* \"#utility.yul\":10376:10385   */\n      slt\n        /* \"#utility.yul\":10372:10461   */\n      and\n        /* \"#utility.yul\":10369:10484   */\n      iszero\n      tag_237\n      jumpi\n        /* \"#utility.yul\":10464:10482   */\n      tag_238\n      tag_115\n      jump\t// in\n    tag_238:\n        /* \"#utility.yul\":10369:10484   */\n    tag_237:\n        /* \"#utility.yul\":10634:10635   */\n      dup3\n        /* \"#utility.yul\":10625:10632   */\n      dup3\n        /* \"#utility.yul\":10620:10636   */\n      sdiv\n        /* \"#utility.yul\":10617:10618   */\n      dup5\n        /* \"#utility.yul\":10614:10637   */\n      eq\n        /* \"#utility.yul\":10594:10595   */\n      dup4\n        /* \"#utility.yul\":10587:10596   */\n      iszero\n        /* \"#utility.yul\":10567:10651   */\n      or\n        /* \"#utility.yul\":10544:10684   */\n      tag_239\n      jumpi\n        /* \"#utility.yul\":10664:10682   */\n      tag_240\n      tag_115\n      jump\t// in\n    tag_240:\n        /* \"#utility.yul\":10544:10684   */\n    tag_239:\n        /* \"#utility.yul\":10182:10691   */\n      pop\n        /* \"#utility.yul\":10135:10691   */\n      swap3\n      swap2\n      pop\n      pop\n      jump\t// out\n\n    auxdata: 0xa26469706673582212209af64f0fc29c80419004c23e08010ff5628efcd2fa0732e93a17a698baff705464736f6c634300081e0033\n}\n",
				"bytecode": {
					"linkReferences": {},
					"object": "60a0604052348015600e575f5ffd5b503373ffffffffffffffffffffffffffffffffffffffff1660808173ffffffffffffffffffffffffffffffffffffffff1681525050608051610c5a6100625f395f818161027201526104be0152610c5a5ff3fe608060405260043610610058575f3560e01c80633430a88c146100715780633ccfd60b1461009b5780633e47d6f3146100b1578063b60d4288146100ed578063dba6335f146100f7578063dc0d3dff1461012157610067565b366100675761006561015d565b005b61006f61015d565b005b34801561007c575f5ffd5b50610085610264565b60405161009291906106b1565b60405180910390f35b3480156100a6575f5ffd5b506100af610270565b005b3480156100bc575f5ffd5b506100d760048036038101906100d29190610728565b6104a7565b6040516100e491906106b1565b60405180910390f35b6100f561015d565b005b348015610102575f5ffd5b5061010b6104bc565b6040516101189190610762565b60405180910390f35b34801561012c575f5ffd5b50610147600480360381019061014291906107a5565b6104e0565b6040516101549190610762565b60405180910390f35b674563918244f4000061016f3461051a565b10156101b0576040517f08c379a00000000000000000000000000000000000000000000000000000000081526004016101a79061082a565b60405180910390fd5b5f33908060018154018082558091505060019003905f5260205f20015f9091909190916101000a81548173ffffffffffffffffffffffffffffffffffffffff021916908373ffffffffffffffffffffffffffffffffffffffff1602179055503460015f3373ffffffffffffffffffffffffffffffffffffffff1673ffffffffffffffffffffffffffffffffffffffff1681526020019081526020015f205f82825461025b9190610875565b92505081905550565b674563918244f4000081565b7f000000000000000000000000000000000000000000000000000000000000000073ffffffffffffffffffffffffffffffffffffffff163373ffffffffffffffffffffffffffffffffffffffff16146102fe576040517f08c379a00000000000000000000000000000000000000000000000000000000081526004016102f5906108f2565b60405180910390fd5b5f5f90505b5f8054905081101561039d575f5f828154811061032357610322610910565b5b905f5260205f20015f9054906101000a900473ffffffffffffffffffffffffffffffffffffffff1690505f60015f8373ffffffffffffffffffffffffffffffffffffffff1673ffffffffffffffffffffffffffffffffffffffff1681526020019081526020015f2081905550508080600101915050610303565b505f67ffffffffffffffff8111156103b8576103b761093d565b5b6040519080825280602002602001820160405280156103e65781602001602082028036833780820191505090505b505f90805190602001906103fb9291906105f7565b505f3373ffffffffffffffffffffffffffffffffffffffff164760405161042190610997565b5f6040518083038185875af1925050503d805f811461045b576040519150601f19603f3d011682016040523d82523d5f602084013e610460565b606091505b50509050806104a4576040517f08c379a000000000000000000000000000000000000000000000000000000000815260040161049b906109f5565b60405180910390fd5b50565b6001602052805f5260405f205f915090505481565b7f000000000000000000000000000000000000000000000000000000000000000081565b5f81815481106104ee575f80fd5b905f5260205f20015f915054906101000a900473ffffffffffffffffffffffffffffffffffffffff1681565b5f5f610524610552565b90505f670de0b6b3a7640000848361053c9190610a13565b6105469190610a81565b90508092505050919050565b5f5f73694aa1769357215de4fac081bf1f309adc32530690505f8173ffffffffffffffffffffffffffffffffffffffff1663feaf968c6040518163ffffffff1660e01b815260040160a060405180830381865afa1580156105b5573d5f5f3e3d5ffd5b505050506040513d601f19601f820116820180604052508101906105d99190610b37565b5050509150506402540be400816105f09190610bae565b9250505090565b828054828255905f5260205f2090810192821561066d579160200282015b8281111561066c578251825f6101000a81548173ffffffffffffffffffffffffffffffffffffffff021916908373ffffffffffffffffffffffffffffffffffffffff16021790555091602001919060010190610615565b5b50905061067a919061067e565b5090565b5b80821115610695575f815f90555060010161067f565b5090565b5f819050919050565b6106ab81610699565b82525050565b5f6020820190506106c45f8301846106a2565b92915050565b5f5ffd5b5f73ffffffffffffffffffffffffffffffffffffffff82169050919050565b5f6106f7826106ce565b9050919050565b610707816106ed565b8114610711575f5ffd5b50565b5f81359050610722816106fe565b92915050565b5f6020828403121561073d5761073c6106ca565b5b5f61074a84828501610714565b91505092915050565b61075c816106ed565b82525050565b5f6020820190506107755f830184610753565b92915050565b61078481610699565b811461078e575f5ffd5b50565b5f8135905061079f8161077b565b92915050565b5f602082840312156107ba576107b96106ca565b5b5f6107c784828501610791565b91505092915050565b5f82825260208201905092915050565b7f6469646e27742073656e6420656e6f75676820657468000000000000000000005f82015250565b5f6108146016836107d0565b915061081f826107e0565b602082019050919050565b5f6020820190508181035f83015261084181610808565b9050919050565b7f4e487b71000000000000000000000000000000000000000000000000000000005f52601160045260245ffd5b5f61087f82610699565b915061088a83610699565b92508282019050808211156108a2576108a1610848565b5b92915050565b7f6f6e6c79206f776e65722063616e20646f2074686973000000000000000000005f82015250565b5f6108dc6016836107d0565b91506108e7826108a8565b602082019050919050565b5f6020820190508181035f830152610909816108d0565b9050919050565b7f4e487b71000000000000000000000000000000000000000000000000000000005f52603260045260245ffd5b7f4e487b71000000000000000000000000000000000000000000000000000000005f52604160045260245ffd5b5f81905092915050565b50565b5f6109825f8361096a565b915061098d82610974565b5f82019050919050565b5f6109a182610977565b9150819050919050565b7f63616c6c206661696c65640000000000000000000000000000000000000000005f82015250565b5f6109df600b836107d0565b91506109ea826109ab565b602082019050919050565b5f6020820190508181035f830152610a0c816109d3565b9050919050565b5f610a1d82610699565b9150610a2883610699565b9250828202610a3681610699565b91508282048414831517610a4d57610a4c610848565b5b5092915050565b7f4e487b71000000000000000000000000000000000000000000000000000000005f52601260045260245ffd5b5f610a8b82610699565b9150610a9683610699565b925082610aa657610aa5610a54565b5b828204905092915050565b5f69ffffffffffffffffffff82169050919050565b610acf81610ab1565b8114610ad9575f5ffd5b50565b5f81519050610aea81610ac6565b92915050565b5f819050919050565b610b0281610af0565b8114610b0c575f5ffd5b50565b5f81519050610b1d81610af9565b92915050565b5f81519050610b318161077b565b92915050565b5f5f5f5f5f60a08688031215610b5057610b4f6106ca565b5b5f610b5d88828901610adc565b9550506020610b6e88828901610b0f565b9450506040610b7f88828901610b23565b9350506060610b9088828901610b23565b9250506080610ba188828901610adc565b9150509295509295909350565b5f610bb882610af0565b9150610bc383610af0565b9250828202610bd181610af0565b91507f800000000000000000000000000000000000000000000000000000000000000084145f84121615610c0857610c07610848565b5b8282058414831517610c1d57610c1c610848565b5b509291505056fea26469706673582212209af64f0fc29c80419004c23e08010ff5628efcd2fa0732e93a17a698baff705464736f6c634300081e0033",
					"opcodes": "PUSH1 0xA0 PUSH1 0x40 MSTORE CALLVALUE DUP1 ISZERO PUSH1 0xE JUMPI PUSH0 PUSH0 REVERT JUMPDEST POP CALLER PUSH20 0xFFFFFFFFFFFFFFFFFFFFFFFFFFFFFFFFFFFFFFFF AND PUSH1 0x80 DUP2 PUSH20 0xFFFFFFFFFFFFFFFFFFFFFFFFFFFFFFFFFFFFFFFF AND DUP2 MSTORE POP POP PUSH1 0x80 MLOAD PUSH2 0xC5A PUSH2 0x62 PUSH0 CODECOPY PUSH0 DUP2 DUP2 PUSH2 0x272 ADD MSTORE PUSH2 0x4BE ADD MSTORE PUSH2 0xC5A PUSH0 RETURN INVALID PUSH1 0x80 PUSH1 0x40 MSTORE PUSH1 0x4 CALLDATASIZE LT PUSH2 0x58 JUMPI PUSH0 CALLDATALOAD PUSH1 0xE0 SHR DUP1 PUSH4 0x3430A88C EQ PUSH2 0x71 JUMPI DUP1 PUSH4 0x3CCFD60B EQ PUSH2 0x9B JUMPI DUP1 PUSH4 0x3E47D6F3 EQ PUSH2 0xB1 JUMPI DUP1 PUSH4 0xB60D4288 EQ PUSH2 0xED JUMPI DUP1 PUSH4 0xDBA6335F EQ PUSH2 0xF7 JUMPI DUP1 PUSH4 0xDC0D3DFF EQ PUSH2 0x121 JUMPI PUSH2 0x67 JUMP JUMPDEST CALLDATASIZE PUSH2 0x67 JUMPI PUSH2 0x65 PUSH2 0x15D JUMP JUMPDEST STOP JUMPDEST PUSH2 0x6F PUSH2 0x15D JUMP JUMPDEST STOP JUMPDEST CALLVALUE DUP1 ISZERO PUSH2 0x7C JUMPI PUSH0 PUSH0 REVERT JUMPDEST POP PUSH2 0x85 PUSH2 0x264 JUMP JUMPDEST PUSH1 0x40 MLOAD PUSH2 0x92 SWAP2 SWAP1 PUSH2 0x6B1 JUMP JUMPDEST PUSH1 0x40 MLOAD DUP1 SWAP2 SUB SWAP1 RETURN JUMPDEST CALLVALUE DUP1 ISZERO PUSH2 0xA6 JUMPI PUSH0 PUSH0 REVERT JUMPDEST POP PUSH2 0xAF PUSH2 0x270 JUMP JUMPDEST STOP JUMPDEST CALLVALUE DUP1 ISZERO PUSH2 0xBC JUMPI PUSH0 PUSH0 REVERT JUMPDEST POP PUSH2 0xD7 PUSH1 0x4 DUP1 CALLDATASIZE SUB DUP2 ADD SWAP1 PUSH2 0xD2 SWAP2 SWAP1 PUSH2 0x728 JUMP JUMPDEST PUSH2 0x4A7 JUMP JUMPDEST PUSH1 0x40 MLOAD PUSH2 0xE4 SWAP2 SWAP1 PUSH2 0x6B1 JUMP JUMPDEST PUSH1 0x40 MLOAD DUP1 SWAP2 SUB SWAP1 RETURN JUMPDEST PUSH2 0xF5 PUSH2 0x15D JUMP JUMPDEST STOP JUMPDEST CALLVALUE DUP1 ISZERO PUSH2 0x102 JUMPI PUSH0 PUSH0 REVERT JUMPDEST POP PUSH2 0x10B PUSH2 0x4BC JUMP JUMPDEST PUSH1 0x40 MLOAD PUSH2 0x118 SWAP2 SWAP1 PUSH2 0x762 JUMP JUMPDEST PUSH1 0x40 MLOAD DUP1 SWAP2 SUB SWAP1 RETURN JUMPDEST CALLVALUE DUP1 ISZERO PUSH2 0x12C JUMPI PUSH0 PUSH0 REVERT JUMPDEST POP PUSH2 0x147 PUSH1 0x4 DUP1 CALLDATASIZE SUB DUP2 ADD SWAP1 PUSH2 0x142 SWAP2 SWAP1 PUSH2 0x7A5 JUMP JUMPDEST PUSH2 0x4E0 JUMP JUMPDEST PUSH1 0x40 MLOAD PUSH2 0x154 SWAP2 SWAP1 PUSH2 0x762 JUMP JUMPDEST PUSH1 0x40 MLOAD DUP1 SWAP2 SUB SWAP1 RETURN JUMPDEST PUSH8 0x4563918244F40000 PUSH2 0x16F CALLVALUE PUSH2 0x51A JUMP JUMPDEST LT ISZERO PUSH2 0x1B0 JUMPI PUSH1 0x40 MLOAD PUSH32 0x8C379A000000000000000000000000000000000000000000000000000000000 DUP2 MSTORE PUSH1 0x4 ADD PUSH2 0x1A7 SWAP1 PUSH2 0x82A JUMP JUMPDEST PUSH1 0x40 MLOAD DUP1 SWAP2 SUB SWAP1 REVERT JUMPDEST PUSH0 CALLER SWAP1 DUP1 PUSH1 0x1 DUP2 SLOAD ADD DUP1 DUP3 SSTORE DUP1 SWAP2 POP POP PUSH1 0x1 SWAP1 SUB SWAP1 PUSH0 MSTORE PUSH1 0x20 PUSH0 KECCAK256 ADD PUSH0 SWAP1 SWAP2 SWAP1 SWAP2 SWAP1 SWAP2 PUSH2 0x100 EXP DUP2 SLOAD DUP2 PUSH20 0xFFFFFFFFFFFFFFFFFFFFFFFFFFFFFFFFFFFFFFFF MUL NOT AND SWAP1 DUP4 PUSH20 0xFFFFFFFFFFFFFFFFFFFFFFFFFFFFFFFFFFFFFFFF AND MUL OR SWAP1 SSTORE POP CALLVALUE PUSH1 0x1 PUSH0 CALLER PUSH20 0xFFFFFFFFFFFFFFFFFFFFFFFFFFFFFFFFFFFFFFFF AND PUSH20 0xFFFFFFFFFFFFFFFFFFFFFFFFFFFFFFFFFFFFFFFF AND DUP2 MSTORE PUSH1 0x20 ADD SWAP1 DUP2 MSTORE PUSH1 0x20 ADD PUSH0 KECCAK256 PUSH0 DUP3 DUP3 SLOAD PUSH2 0x25B SWAP2 SWAP1 PUSH2 0x875 JUMP JUMPDEST SWAP3 POP POP DUP2 SWAP1 SSTORE POP JUMP JUMPDEST PUSH8 0x4563918244F40000 DUP2 JUMP JUMPDEST PUSH32 0x0 PUSH20 0xFFFFFFFFFFFFFFFFFFFFFFFFFFFFFFFFFFFFFFFF AND CALLER PUSH20 0xFFFFFFFFFFFFFFFFFFFFFFFFFFFFFFFFFFFFFFFF AND EQ PUSH2 0x2FE JUMPI PUSH1 0x40 MLOAD PUSH32 0x8C379A000000000000000000000000000000000000000000000000000000000 DUP2 MSTORE PUSH1 0x4 ADD PUSH2 0x2F5 SWAP1 PUSH2 0x8F2 JUMP JUMPDEST PUSH1 0x40 MLOAD DUP1 SWAP2 SUB SWAP1 REVERT JUMPDEST PUSH0 PUSH0 SWAP1 POP JUMPDEST PUSH0 DUP1 SLOAD SWAP1 POP DUP2 LT ISZERO PUSH2 0x39D JUMPI PUSH0 PUSH0 DUP3 DUP2 SLOAD DUP2 LT PUSH2 0x323 JUMPI PUSH2 0x322 PUSH2 0x910 JUMP JUMPDEST JUMPDEST SWAP1 PUSH0 MSTORE PUSH1 0x20 PUSH0 KECCAK256 ADD PUSH0 SWAP1 SLOAD SWAP1 PUSH2 0x100 EXP SWAP1 DIV PUSH20 0xFFFFFFFFFFFFFFFFFFFFFFFFFFFFFFFFFFFFFFFF AND SWAP1 POP PUSH0 PUSH1 0x1 PUSH0 DUP4 PUSH20 0xFFFFFFFFFFFFFFFFFFFFFFFFFFFFFFFFFFFFFFFF AND PUSH20 0xFFFFFFFFFFFFFFFFFFFFFFFFFFFFFFFFFFFFFFFF AND DUP2 MSTORE PUSH1 0x20 ADD SWAP1 DUP2 MSTORE PUSH1 0x20 ADD PUSH0 KECCAK256 DUP2 SWAP1 SSTORE POP POP DUP1 DUP1 PUSH1 0x1 ADD SWAP2 POP POP PUSH2 0x303 JUMP JUMPDEST POP PUSH0 PUSH8 0xFFFFFFFFFFFFFFFF DUP2 GT ISZERO PUSH2 0x3B8 JUMPI PUSH2 0x3B7 PUSH2 0x93D JUMP JUMPDEST JUMPDEST PUSH1 0x40 MLOAD SWAP1 DUP1 DUP3 MSTORE DUP1 PUSH1 0x20 MUL PUSH1 0x20 ADD DUP3 ADD PUSH1 0x40 MSTORE DUP1 ISZERO PUSH2 0x3E6 JUMPI DUP2 PUSH1 0x20 ADD PUSH1 0x20 DUP3 MUL DUP1 CALLDATASIZE DUP4 CALLDATACOPY DUP1 DUP3 ADD SWAP2 POP POP SWAP1 POP JUMPDEST POP PUSH0 SWAP1 DUP1 MLOAD SWAP1 PUSH1 0x20 ADD SWAP1 PUSH2 0x3FB SWAP3 SWAP2 SWAP1 PUSH2 0x5F7 JUMP JUMPDEST POP PUSH0 CALLER PUSH20 0xFFFFFFFFFFFFFFFFFFFFFFFFFFFFFFFFFFFFFFFF AND SELFBALANCE PUSH1 0x40 MLOAD PUSH2 0x421 SWAP1 PUSH2 0x997 JUMP JUMPDEST PUSH0 PUSH1 0x40 MLOAD DUP1 DUP4 SUB DUP2 DUP6 DUP8 GAS CALL SWAP3 POP POP POP RETURNDATASIZE DUP1 PUSH0 DUP2 EQ PUSH2 0x45B JUMPI PUSH1 0x40 MLOAD SWAP2 POP PUSH1 0x1F NOT PUSH1 0x3F RETURNDATASIZE ADD AND DUP3 ADD PUSH1 0x40 MSTORE RETURNDATASIZE DUP3 MSTORE RETURNDATASIZE PUSH0 PUSH1 0x20 DUP5 ADD RETURNDATACOPY PUSH2 0x460 JUMP JUMPDEST PUSH1 0x60 SWAP2 POP JUMPDEST POP POP SWAP1 POP DUP1 PUSH2 0x4A4 JUMPI PUSH1 0x40 MLOAD PUSH32 0x8C379A000000000000000000000000000000000000000000000000000000000 DUP2 MSTORE PUSH1 0x4 ADD PUSH2 0x49B SWAP1 PUSH2 0x9F5 JUMP JUMPDEST PUSH1 0x40 MLOAD DUP1 SWAP2 SUB SWAP1 REVERT JUMPDEST POP JUMP JUMPDEST PUSH1 0x1 PUSH1 0x20 MSTORE DUP1 PUSH0 MSTORE PUSH1 0x40 PUSH0 KECCAK256 PUSH0 SWAP2 POP SWAP1 POP SLOAD DUP2 JUMP JUMPDEST PUSH32 0x0 DUP2 JUMP JUMPDEST PUSH0 DUP2 DUP2 SLOAD DUP2 LT PUSH2 0x4EE JUMPI PUSH0 DUP1 REVERT JUMPDEST SWAP1 PUSH0 MSTORE PUSH1 0x20 PUSH0 KECCAK256 ADD PUSH0 SWAP2 POP SLOAD SWAP1 PUSH2 0x100 EXP SWAP1 DIV PUSH20 0xFFFFFFFFFFFFFFFFFFFFFFFFFFFFFFFFFFFFFFFF AND DUP2 JUMP JUMPDEST PUSH0 PUSH0 PUSH2 0x524 PUSH2 0x552 JUMP JUMPDEST SWAP1 POP PUSH0 PUSH8 0xDE0B6B3A7640000 DUP5 DUP4 PUSH2 0x53C SWAP2 SWAP1 PUSH2 0xA13 JUMP JUMPDEST PUSH2 0x546 SWAP2 SWAP1 PUSH2 0xA81 JUMP JUMPDEST SWAP1 POP DUP1 SWAP3 POP POP POP SWAP2 SWAP1 POP JUMP JUMPDEST PUSH0 PUSH0 PUSH20 0x694AA1769357215DE4FAC081BF1F309ADC325306 SWAP1 POP PUSH0 DUP2 PUSH20 0xFFFFFFFFFFFFFFFFFFFFFFFFFFFFFFFFFFFFFFFF AND PUSH4 0xFEAF968C PUSH1 0x40 MLOAD DUP2 PUSH4 0xFFFFFFFF AND PUSH1 0xE0 SHL DUP2 MSTORE PUSH1 0x4 ADD PUSH1 0xA0 PUSH1 0x40 MLOAD DUP1 DUP4 SUB DUP2 DUP7 GAS STATICCALL ISZERO DUP1 ISZERO PUSH2 0x5B5 JUMPI RETURNDATASIZE PUSH0 PUSH0 RETURNDATACOPY RETURNDATASIZE PUSH0 REVERT JUMPDEST POP POP POP POP PUSH1 0x40 MLOAD RETURNDATASIZE PUSH1 0x1F NOT PUSH1 0x1F DUP3 ADD AND DUP3 ADD DUP1 PUSH1 0x40 MSTORE POP DUP2 ADD SWAP1 PUSH2 0x5D9 SWAP2 SWAP1 PUSH2 0xB37 JUMP JUMPDEST POP POP POP SWAP2 POP POP PUSH5 0x2540BE400 DUP2 PUSH2 0x5F0 SWAP2 SWAP1 PUSH2 0xBAE JUMP JUMPDEST SWAP3 POP POP POP SWAP1 JUMP JUMPDEST DUP3 DUP1 SLOAD DUP3 DUP3 SSTORE SWAP1 PUSH0 MSTORE PUSH1 0x20 PUSH0 KECCAK256 SWAP1 DUP2 ADD SWAP3 DUP3 ISZERO PUSH2 0x66D JUMPI SWAP2 PUSH1 0x20 MUL DUP3 ADD JUMPDEST DUP3 DUP2 GT ISZERO PUSH2 0x66C JUMPI DUP3 MLOAD DUP3 PUSH0 PUSH2 0x100 EXP DUP2 SLOAD DUP2 PUSH20 0xFFFFFFFFFFFFFFFFFFFFFFFFFFFFFFFFFFFFFFFF MUL NOT AND SWAP1 DUP4 PUSH20 0xFFFFFFFFFFFFFFFFFFFFFFFFFFFFFFFFFFFFFFFF AND MUL OR SWAP1 SSTORE POP SWAP2 PUSH1 0x20 ADD SWAP2 SWAP1 PUSH1 0x1 ADD SWAP1 PUSH2 0x615 JUMP JUMPDEST JUMPDEST POP SWAP1 POP PUSH2 0x67A SWAP2 SWAP1 PUSH2 0x67E JUMP JUMPDEST POP SWAP1 JUMP JUMPDEST JUMPDEST DUP1 DUP3 GT ISZERO PUSH2 0x695 JUMPI PUSH0 DUP2 PUSH0 SWAP1 SSTORE POP PUSH1 0x1 ADD PUSH2 0x67F JUMP JUMPDEST POP SWAP1 JUMP JUMPDEST PUSH0 DUP2 SWAP1 POP SWAP2 SWAP1 POP JUMP JUMPDEST PUSH2 0x6AB DUP2 PUSH2 0x699 JUMP JUMPDEST DUP3 MSTORE POP POP JUMP JUMPDEST PUSH0 PUSH1 0x20 DUP3 ADD SWAP1 POP PUSH2 0x6C4 PUSH0 DUP4 ADD DUP5 PUSH2 0x6A2 JUMP JUMPDEST SWAP3 SWAP2 POP POP JUMP JUMPDEST PUSH0 PUSH0 REVERT JUMPDEST PUSH0 PUSH20 0xFFFFFFFFFFFFFFFFFFFFFFFFFFFFFFFFFFFFFFFF DUP3 AND SWAP1 POP SWAP2 SWAP1 POP JUMP JUMPDEST PUSH0 PUSH2 0x6F7 DUP3 PUSH2 0x6CE JUMP JUMPDEST SWAP1 POP SWAP2 SWAP1 POP JUMP JUMPDEST PUSH2 0x707 DUP2 PUSH2 0x6ED JUMP JUMPDEST DUP2 EQ PUSH2 0x711 JUMPI PUSH0 PUSH0 REVERT JUMPDEST POP JUMP JUMPDEST PUSH0 DUP2 CALLDATALOAD SWAP1 POP PUSH2 0x722 DUP2 PUSH2 0x6FE JUMP JUMPDEST SWAP3 SWAP2 POP POP JUMP JUMPDEST PUSH0 PUSH1 0x20 DUP3 DUP5 SUB SLT ISZERO PUSH2 0x73D JUMPI PUSH2 0x73C PUSH2 0x6CA JUMP JUMPDEST JUMPDEST PUSH0 PUSH2 0x74A DUP5 DUP3 DUP6 ADD PUSH2 0x714 JUMP JUMPDEST SWAP2 POP POP SWAP3 SWAP2 POP POP JUMP JUMPDEST PUSH2 0x75C DUP2 PUSH2 0x6ED JUMP JUMPDEST DUP3 MSTORE POP POP JUMP JUMPDEST PUSH0 PUSH1 0x20 DUP3 ADD SWAP1 POP PUSH2 0x775 PUSH0 DUP4 ADD DUP5 PUSH2 0x753 JUMP JUMPDEST SWAP3 SWAP2 POP POP JUMP JUMPDEST PUSH2 0x784 DUP2 PUSH2 0x699 JUMP JUMPDEST DUP2 EQ PUSH2 0x78E JUMPI PUSH0 PUSH0 REVERT JUMPDEST POP JUMP JUMPDEST PUSH0 DUP2 CALLDATALOAD SWAP1 POP PUSH2 0x79F DUP2 PUSH2 0x77B JUMP JUMPDEST SWAP3 SWAP2 POP POP JUMP JUMPDEST PUSH0 PUSH1 0x20 DUP3 DUP5 SUB SLT ISZERO PUSH2 0x7BA JUMPI PUSH2 0x7B9 PUSH2 0x6CA JUMP JUMPDEST JUMPDEST PUSH0 PUSH2 0x7C7 DUP5 DUP3 DUP6 ADD PUSH2 0x791 JUMP JUMPDEST SWAP2 POP POP SWAP3 SWAP2 POP POP JUMP JUMPDEST PUSH0 DUP3 DUP3 MSTORE PUSH1 0x20 DUP3 ADD SWAP1 POP SWAP3 SWAP2 POP POP JUMP JUMPDEST PUSH32 0x6469646E27742073656E6420656E6F7567682065746800000000000000000000 PUSH0 DUP3 ADD MSTORE POP JUMP JUMPDEST PUSH0 PUSH2 0x814 PUSH1 0x16 DUP4 PUSH2 0x7D0 JUMP JUMPDEST SWAP2 POP PUSH2 0x81F DUP3 PUSH2 0x7E0 JUMP JUMPDEST PUSH1 0x20 DUP3 ADD SWAP1 POP SWAP2 SWAP1 POP JUMP JUMPDEST PUSH0 PUSH1 0x20 DUP3 ADD SWAP1 POP DUP2 DUP2 SUB PUSH0 DUP4 ADD MSTORE PUSH2 0x841 DUP2 PUSH2 0x808 JUMP JUMPDEST SWAP1 POP SWAP2 SWAP1 POP JUMP JUMPDEST PUSH32 0x4E487B7100000000000000000000000000000000000000000000000000000000 PUSH0 MSTORE PUSH1 0x11 PUSH1 0x4 MSTORE PUSH1 0x24 PUSH0 REVERT JUMPDEST PUSH0 PUSH2 0x87F DUP3 PUSH2 0x699 JUMP JUMPDEST SWAP2 POP PUSH2 0x88A DUP4 PUSH2 0x699 JUMP JUMPDEST SWAP3 POP DUP3 DUP3 ADD SWAP1 POP DUP1 DUP3 GT ISZERO PUSH2 0x8A2 JUMPI PUSH2 0x8A1 PUSH2 0x848 JUMP JUMPDEST JUMPDEST SWAP3 SWAP2 POP POP JUMP JUMPDEST PUSH32 0x6F6E6C79206F776E65722063616E20646F207468697300000000000000000000 PUSH0 DUP3 ADD MSTORE POP JUMP JUMPDEST PUSH0 PUSH2 0x8DC PUSH1 0x16 DUP4 PUSH2 0x7D0 JUMP JUMPDEST SWAP2 POP PUSH2 0x8E7 DUP3 PUSH2 0x8A8 JUMP JUMPDEST PUSH1 0x20 DUP3 ADD SWAP1 POP SWAP2 SWAP1 POP JUMP JUMPDEST PUSH0 PUSH1 0x20 DUP3 ADD SWAP1 POP DUP2 DUP2 SUB PUSH0 DUP4 ADD MSTORE PUSH2 0x909 DUP2 PUSH2 0x8D0 JUMP JUMPDEST SWAP1 POP SWAP2 SWAP1 POP JUMP JUMPDEST PUSH32 0x4E487B7100000000000000000000000000000000000000000000000000000000 PUSH0 MSTORE PUSH1 0x32 PUSH1 0x4 MSTORE PUSH1 0x24 PUSH0 REVERT JUMPDEST PUSH32 0x4E487B7100000000000000000000000000000000000000000000000000000000 PUSH0 MSTORE PUSH1 0x41 PUSH1 0x4 MSTORE PUSH1 0x24 PUSH0 REVERT JUMPDEST PUSH0 DUP2 SWAP1 POP SWAP3 SWAP2 POP POP JUMP JUMPDEST POP JUMP JUMPDEST PUSH0 PUSH2 0x982 PUSH0 DUP4 PUSH2 0x96A JUMP JUMPDEST SWAP2 POP PUSH2 0x98D DUP3 PUSH2 0x974 JUMP JUMPDEST PUSH0 DUP3 ADD SWAP1 POP SWAP2 SWAP1 POP JUMP JUMPDEST PUSH0 PUSH2 0x9A1 DUP3 PUSH2 0x977 JUMP JUMPDEST SWAP2 POP DUP2 SWAP1 POP SWAP2 SWAP1 POP JUMP JUMPDEST PUSH32 0x63616C6C206661696C6564000000000000000000000000000000000000000000 PUSH0 DUP3 ADD MSTORE POP JUMP JUMPDEST PUSH0 PUSH2 0x9DF PUSH1 0xB DUP4 PUSH2 0x7D0 JUMP JUMPDEST SWAP2 POP PUSH2 0x9EA DUP3 PUSH2 0x9AB JUMP JUMPDEST PUSH1 0x20 DUP3 ADD SWAP1 POP SWAP2 SWAP1 POP JUMP JUMPDEST PUSH0 PUSH1 0x20 DUP3 ADD SWAP1 POP DUP2 DUP2 SUB PUSH0 DUP4 ADD MSTORE PUSH2 0xA0C DUP2 PUSH2 0x9D3 JUMP JUMPDEST SWAP1 POP SWAP2 SWAP1 POP JUMP JUMPDEST PUSH0 PUSH2 0xA1D DUP3 PUSH2 0x699 JUMP JUMPDEST SWAP2 POP PUSH2 0xA28 DUP4 PUSH2 0x699 JUMP JUMPDEST SWAP3 POP DUP3 DUP3 MUL PUSH2 0xA36 DUP2 PUSH2 0x699 JUMP JUMPDEST SWAP2 POP DUP3 DUP3 DIV DUP5 EQ DUP4 ISZERO OR PUSH2 0xA4D JUMPI PUSH2 0xA4C PUSH2 0x848 JUMP JUMPDEST JUMPDEST POP SWAP3 SWAP2 POP POP JUMP JUMPDEST PUSH32 0x4E487B7100000000000000000000000000000000000000000000000000000000 PUSH0 MSTORE PUSH1 0x12 PUSH1 0x4 MSTORE PUSH1 0x24 PUSH0 REVERT JUMPDEST PUSH0 PUSH2 0xA8B DUP3 PUSH2 0x699 JUMP JUMPDEST SWAP2 POP PUSH2 0xA96 DUP4 PUSH2 0x699 JUMP JUMPDEST SWAP3 POP DUP3 PUSH2 0xAA6 JUMPI PUSH2 0xAA5 PUSH2 0xA54 JUMP JUMPDEST JUMPDEST DUP3 DUP3 DIV SWAP1 POP SWAP3 SWAP2 POP POP JUMP JUMPDEST PUSH0 PUSH10 0xFFFFFFFFFFFFFFFFFFFF DUP3 AND SWAP1 POP SWAP2 SWAP1 POP JUMP JUMPDEST PUSH2 0xACF DUP2 PUSH2 0xAB1 JUMP JUMPDEST DUP2 EQ PUSH2 0xAD9 JUMPI PUSH0 PUSH0 REVERT JUMPDEST POP JUMP JUMPDEST PUSH0 DUP2 MLOAD SWAP1 POP PUSH2 0xAEA DUP2 PUSH2 0xAC6 JUMP JUMPDEST SWAP3 SWAP2 POP POP JUMP JUMPDEST PUSH0 DUP2 SWAP1 POP SWAP2 SWAP1 POP JUMP JUMPDEST PUSH2 0xB02 DUP2 PUSH2 0xAF0 JUMP JUMPDEST DUP2 EQ PUSH2 0xB0C JUMPI PUSH0 PUSH0 REVERT JUMPDEST POP JUMP JUMPDEST PUSH0 DUP2 MLOAD SWAP1 POP PUSH2 0xB1D DUP2 PUSH2 0xAF9 JUMP JUMPDEST SWAP3 SWAP2 POP POP JUMP JUMPDEST PUSH0 DUP2 MLOAD SWAP1 POP PUSH2 0xB31 DUP2 PUSH2 0x77B JUMP JUMPDEST SWAP3 SWAP2 POP POP JUMP JUMPDEST PUSH0 PUSH0 PUSH0 PUSH0 PUSH0 PUSH1 0xA0 DUP7 DUP9 SUB SLT ISZERO PUSH2 0xB50 JUMPI PUSH2 0xB4F PUSH2 0x6CA JUMP JUMPDEST JUMPDEST PUSH0 PUSH2 0xB5D DUP9 DUP3 DUP10 ADD PUSH2 0xADC JUMP JUMPDEST SWAP6 POP POP PUSH1 0x20 PUSH2 0xB6E DUP9 DUP3 DUP10 ADD PUSH2 0xB0F JUMP JUMPDEST SWAP5 POP POP PUSH1 0x40 PUSH2 0xB7F DUP9 DUP3 DUP10 ADD PUSH2 0xB23 JUMP JUMPDEST SWAP4 POP POP PUSH1 0x60 PUSH2 0xB90 DUP9 DUP3 DUP10 ADD PUSH2 0xB23 JUMP JUMPDEST SWAP3 POP POP PUSH1 0x80 PUSH2 0xBA1 DUP9 DUP3 DUP10 ADD PUSH2 0xADC JUMP JUMPDEST SWAP2 POP POP SWAP3 SWAP6 POP SWAP3 SWAP6 SWAP1 SWAP4 POP JUMP JUMPDEST PUSH0 PUSH2 0xBB8 DUP3 PUSH2 0xAF0 JUMP JUMPDEST SWAP2 POP PUSH2 0xBC3 DUP4 PUSH2 0xAF0 JUMP JUMPDEST SWAP3 POP DUP3 DUP3 MUL PUSH2 0xBD1 DUP2 PUSH2 0xAF0 JUMP JUMPDEST SWAP2 POP PUSH32 0x8000000000000000000000000000000000000000000000000000000000000000 DUP5 EQ PUSH0 DUP5 SLT AND ISZERO PUSH2 0xC08 JUMPI PUSH2 0xC07 PUSH2 0x848 JUMP JUMPDEST JUMPDEST DUP3 DUP3 SDIV DUP5 EQ DUP4 ISZERO OR PUSH2 0xC1D JUMPI PUSH2 0xC1C PUSH2 0x848 JUMP JUMPDEST JUMPDEST POP SWAP3 SWAP2 POP POP JUMP INVALID LOG2 PUSH5 0x6970667358 0x22 SLT KECCAK256 SWAP11 0xF6 0x4F 0xF 0xC2 SWAP13 DUP1 COINBASE SWAP1 DIV 0xC2 RETURNDATACOPY ADDMOD ADD 0xF CREATE2 PUSH3 0x8EFCD2 STATICCALL SMOD ORIGIN 0xE9 GASPRICE OR 0xA6 SWAP9 0xBA SELFDESTRUCT PUSH17 0x5464736F6C634300081E00330000000000 "
				},
				"gasEstimates": {
					"creation": {
						"codeDepositCost": "632400",
						"executionCost": "infinite",
						"totalCost": "infinite"
					},
					"external": {
						"": "infinite",
						"addressToAmountFunded(address)": "2824",
						"fund()": "infinite",
						"funders(uint256)": "5031",
						"i_owner()": "infinite",
						"minimumUSD()": "303",
						"withdraw()": "infinite"
					}
				},
				"methodIdentifiers": {
					"addressToAmountFunded(address)": "3e47d6f3",
					"fund()": "b60d4288",
					"funders(uint256)": "dc0d3dff",
					"i_owner()": "dba6335f",
					"minimumUSD()": "3430a88c",
					"withdraw()": "3ccfd60b"
				}
			},
			"storageLayout": {
				"storage": [
					{
						"astId": 58,
						"contract": "FundMe.sol:fundMe",
						"label": "funders",
						"offset": 0,
						"slot": "0",
						"type": "t_array(t_address)dyn_storage"
					},
					{
						"astId": 62,
						"contract": "FundMe.sol:fundMe",
						"label": "addressToAmountFunded",
						"offset": 0,
						"slot": "1",
						"type": "t_mapping(t_address,t_uint256)"
					}
				],
				"types": {
					"t_address": {
						"encoding": "inplace",
						"label": "address",
						"numberOfBytes": "20"
					},
					"t_array(t_address)dyn_storage": {
						"base": "t_address",
						"encoding": "dynamic_array",
						"label": "address[]",
						"numberOfBytes": "32"
					},
					"t_mapping(t_address,t_uint256)": {
						"encoding": "mapping",
						"key": "t_address",
						"label": "mapping(address => uint256)",
						"numberOfBytes": "32",
						"value": "t_uint256"
					},
					"t_uint256": {
						"encoding": "inplace",
						"label": "uint256",
						"numberOfBytes": "32"
					}
				}
			},
			"userdoc": {
				"kind": "user",
				"methods": {},
				"version": 1
			}
		}
	}
}